:100000000C94E2000C940A010C940A010C940A016D
:100010000C940A010C940A010C940A010C940A0134
:100020000C940A010C94E6040C940A010C942E051D
:100030000C940A010C940A010C940A010C940A0114
:100040000C9498080C940A010C94A0020C947A0267
:100050000C940A010C940A010C940A010C940A01F4
:100060000C94BC030C940A01005EBCE2613FDD838A
:10007000C29C7E20A3FD1F419DC3217FFCA2401E88
:100080005F01E3BD3E6082DC237D9FC1421CFEA078
:10009000E1BF5D0380DE3C62BEE0025CDF81633D68
:1000A0007C22C09E1D43A1FF4618FAA427799BC558
:1000B00084DA3866E5BB5907DB856739BAE4065848
:1000C0001947A5FB7826C49A653BD987045AB8E638
:1000D000A7F91B45C6987A24F8A6441A99C7257B28
:1000E0003A6486D85B05E7B98CD2306EEDB3510F18
:1000F0004E10F2AC2F7193CD114FADF3702ECC9208
:10010000D38D6F31B2EC0E50AFF1134DCE90722CF7
:100110006D33D18F0C52B0EE326C8ED0530DEFB1E7
:10012000F0AE4C1291CF2D73CA947628ABF51749D7
:100130000856B4EA6937D58B5709EBB536688AD4C7
:1001400095CB2977F4AA4816E9B7550B88D6346AB7
:100150002B7597C94A14F6A8742AC896154BA9F7A7
:10016000B6E80A54D7896B35000000002400270048
:100170002A0000000000250028002B0000000008D5
:10018000000201000003040700000000000000005E
:1001900000000000230026002900040404040404D5
:1001A0000404020202020202030303030303010226
:1001B00004081020408001020408102001020408F5
:1001C0001020810C11241FBECFEFD8E0DEBFCDBFC1
:1001D00011E0A0E0B1E0EAE4FFE102C005900D9279
:1001E000A637B107D9F724E0A6E7B1E001C01D9218
:1001F000A535B207E1F710E0C2EED0E004C02197C8
:10020000FE010E94980FC13ED107C9F70E94E20883
:100210000C94A30F0C940000CF92DF92EF92FF9208
:100220000F931F93CF93DF936C017A018B01C0E092
:10023000D0E0CE15DF0581F0D8016D918D01D6019A
:10024000ED91FC910190F081E02DC6010995892B7B
:1002500011F02196EECF7E01C701DF91CF911F9162
:100260000F91FF90EF90DF90CF900895FC01538D98
:10027000448D252F30E0842F90E0821B930B541780
:1002800010F0CF96089501970895FC01918D828D0D
:10029000981761F0828DDF01A80FB11D5D968C91DA
:1002A000928D9F5F9F73928F90E008958FEF9FEFE5
:1002B0000895FC01918D828D981731F0828DE80FA1
:1002C000F11D858D90E008958FEF9FEF0895FC015B
:1002D000918D228D892F90E0805C9F4F821B910928
:1002E0008F739927089581E893E00E94670121E0C8
:1002F000892B09F420E0822F0895FC01848DDF0111
:10030000A80FB11DA35ABF4F2C91848D90E0019688
:100310008F739927848FA689B7892C93A089B18977
:100320008C91837080648C93938D848D981306C018
:100330000288F389E02D80818F7D80830895EF927C
:10034000FF920F931F93CF93DF93EC0181E0888F8F
:100350009B8D8C8D981305C0E889F989808185FD76
:1003600026C0F62E0B8D10E00F5F1F4F0F73112765
:10037000E02E8C8DE8120CC00FB607FCFACFE8898E
:10038000F989808185FFF5CFCE010E947D01F1CFF3
:100390008B8DFE01E80FF11DE35AFF4FF0829FB7EE
:1003A000F8940B8FEA89FB89808180620AC09FB72D
:1003B000F894EE89FF896083E889F98980818370E8
:1003C000806480839FBF81E090E0DF91CF911F9197
:1003D0000F91FF90EF900895CF93DF93EC01888DFC
:1003E0008823C9F0EA89FB89808185FD05C0A88939
:1003F000B9898C9186FD0FC00FB607FCF5CF8081BF
:1004000085FFF2CFA889B9898C9185FFEDCFCE0108
:100410000E947D01E7CFDF91CF91089580E090E0C9
:10042000892B29F00E94730181110C94000008951A
:1004300085ED8093BC008091BC0084FDFCCF1092C0
:10044000BE01089540919A01262F30E0240F311DFE
:1004500021323105DCF42091BE012430C9F4FC01C5
:1004600080E090E0861758F430919A012191DC01E8
:10047000A658BE4FA30FB11D2C930196F3CF8091C8
:100480009A01680F60939A0180E0089581E00895D1
:1004900082E0089508958FEF9FEF08958FEF9FEF0B
:1004A00008958091790190E0919581959109089541
:1004B000CF93DF93CB01EA01642F0E942202CE0189
:1004C000DF91CF910895CF93DF931F92CDB7DEB721
:1004D000698361E0CE0101960E94220281E090E0F2
:1004E0000F90DF91CF910895089580E090E00895F6
:1004F0000E949E0F1F920F920FB60F9211242F93FE
:100500003F934F935F936F937F938F939F93AF939B
:10051000BF93EF93FF9381E893E00E947D01FF91E9
:10052000EF91BF91AF919F918F917F916F915F916B
:100530004F913F912F910F900FBE0F901F901895E4
:100540001F920F920FB60F9211242F938F939F93A8
:10055000EF93FF93E0919103F09192038081E091FA
:100560009703F091980382FD12C0908180919A03C5
:100570008F5F8F7320919B03821751F0E0919A0354
:10058000F0E0EF57FC4F958F80939A0301C0808174
:10059000FF91EF919F918F912F910F900FBE0F9030
:1005A0001F901895DC0180E0615040F09D91E82F8C
:1005B000E927F0E0E859FF4F8491F6CF0895FC0158
:1005C00090810180F281E02DF8948181892B8183D3
:1005D0002281892F809528232283A7E0B0E01197FC
:1005E000F1F7218182238183A3E2B0E01197F1F733
:1005F00080817894EFECF0E03197F1F7982381E077
:1006000009F480E00895FC0190810180F281E02DE1
:10061000892F809560FF12C0F89422818223828303
:100620008181892B8183A3E2B0E01197F1F7828168
:10063000982B9283789487ED90E011C0F8942281F2
:10064000822382838181892B8183AFEFB0E0119770
:10065000F1F78281982B928378948FE090E0019754
:10066000F1F70895DF92EF92FF920F931F93CF93CC
:10067000DF93EC01D62EE42E08E010E0FF24F39483
:1006800061E08D2D8F2109F460E0CE010E9403030B
:10069000FF0C01501109A1F7E11010C0F894E98195
:1006A000FA8191818881809589238183E981FA810A
:1006B000928188818095892382837894DF91CF917C
:1006C0001F910F91FF90EF90DF900895EF92FF92AE
:1006D0000F931F93CF93DF938C017B0140E065E57F
:1006E0000E943203E70188E0E80EF11C699140E0C6
:1006F000C8010E943203CE15DF05C1F7DF91CF910B
:100700001F910F91FF90EF900895DC012C911196AD
:10071000ED91FC911297F8948181922F9095892305
:10072000818378948DE743E050E0815021F1DA0134
:100730001197F1F730813223C1F3F8948281892334
:1007400082838181822B81837894ABE7B7E0119714
:10075000F1F7F89481819823918383E191E00197E7
:10076000F1F78081282381E009F080E07894E3E6C6
:10077000F6E03197F1F708951F920F920FB60F929E
:1007800011242F933F934F935F936F937F938F9396
:100790009F93AF93BF93EF93FF938091B900887FAE
:1007A000803609F49CC068F5883209F45BC090F487
:1007B000803109F454C038F4882309F4F2C0883039
:1007C00009F44DC0F2C0883109F44CC0803209F4FC
:1007D0005DC0EBC0803409F468C048F4803309F48C
:1007E00055C0883309F0E1C08093BD01D4C0803585
:1007F00009F44FC0883509F45DC0883409F0D5C0CC
:10080000D2C0883909F4C3C0A8F4883709F467C096
:1008100038F4883609F463C0803709F460C0C5C075
:10082000883809F4B4C0803909F45FC0803809F011
:10083000BCC05BC0803B09F484C038F4803A09F442
:1008400066C0883A09F47DC0B0C0803C09F4A3C0FA
:10085000883C09F4A0C0883B09F486C0A6C08091FA
:10086000E30110C09091E2018091E101981770F5C9
:10087000E091E20181E08E0F8093E201F0E0EF531E
:10088000FE4F80818093BB0085EC82C08093BD01C8
:100890008AC0E091E20181E08E0F8093E2018091B5
:1008A000BB00F0E0EF53FE4F80839091E201809116
:1008B000E1016AC0E091E20181E08E0F8093E201E4
:1008C0008091BB00F0E0EF53FE4F80838091C00128
:1008D000811169C081E08093BF0184EA5DC083E03B
:1008E0008093BE011092BC01CFCF8091BC018032B9
:1008F00008F04DC0E091BC0181E08E0F8093BC01F7
:100900008091BB00F0E0E456FE4F8083BDCF85ECC4
:100910008093BC001092BE018091BC01803230F403
:10092000E091BC01F0E0E456FE4F10826091BC0102
:1009300070E08CE991E0E0E0F0E009951092BC01F4
:1009400034C084E08093BE0110929B0110929A0102
:10095000E0E0F0E0099580919A01811105C081E005
:1009600080939A0110927A01E0919B0181E08E0FB1
:1009700080939B01F0E0E658FE4F80818093BB009E
:1009800090919B0180919A01981708F47DCF85E89A
:100990008093BC000AC085EC8093BC001092BE011D
:1009A00004C01092BD010E941802FF91EF91BF9107
:1009B000AF919F918F917F916F915F914F913F91F7
:1009C0002F910F900FBE0F901F9018951F920F92AE
:1009D0000FB60F9211242F933F934F935F936F9312
:1009E0007F938F939F93AF93BF93CF93EF93FF9397
:1009F00081EB8093B200C091780180E00E945008A2
:100A0000EC2FF0E0EE0FFF1FEC54FD4F918380833D
:100A1000C091780181E00E945008EC2FF0E0EE0FC9
:100A2000FF1FE451FE4F91838083809178018F5F97
:100A30008093780180937801FF91EF91CF91BF91DE
:100A4000AF919F918F917F916F915F914F913F9166
:100A50002F910F900FBE0F901F9018951F920F921D
:100A60000FB60F9211241F932F933F934F935F93D1
:100A70006F937F938F939F93AF93BF93CF93DF93A6
:100A8000EF93FF938CE00E94BC0711E0682F612771
:100A90008CE00E94E507809178018093EB01109231
:100AA0007801CEE1D4E08E819F810E94850340E0F1
:100AB0006CEC8E819F810E943203488164E48E81B8
:100AC0009F810E94320380E00E94500890937D0332
:100AD00080937C0381E00E9450089093770180937B
:100AE000760110937E03FF91EF91DF91CF91BF913B
:100AF000AF919F918F917F916F915F914F913F91B6
:100B00002F911F910F900FBE0F901F90189583305B
:100B100081F028F4813099F08230A1F00895873077
:100B2000A9F08830B9F08430D1F4809180008F7DB5
:100B300003C0809180008F7780938000089584B5F2
:100B40008F7702C084B58F7D84BD08958091B000F9
:100B50008F7703C08091B0008F7D8093B00008959F
:100B6000AF92BF92CF92DF92EF92FF920F931F93BB
:100B7000CF93DF938B01BC018091240490912504D5
:100B80000E94660340E06EEB80912404909125045E
:100B90000E943203E801680189E0C80ED11CA090D0
:100BA0002404B090250488E0E82EF12C10E001E048
:100BB000C5010E94DF028111102B000F81E0E81AAD
:100BC000F108B1F71993CC16DD0649F7809124049A
:100BD000909125040E94850391E0813009F090E016
:100BE000892FDF91CF911F910F91FF90EF90DF90B0
:100BF000CF90BF90AF9008950F931F93CF93DF9343
:100C0000CDB7DEB729970FB6F894DEBF0FBECDBFC4
:100C10008C0180912404909125040E9485038823EF
:100C200009F1BE016F5F7F4FC8010E94B0058823A4
:100C3000C9F068E0CE0101960E94D202998589131D
:100C400011C08D818F3361F020F48F3159F489E028
:100C50000CC08F3519F08F3739F004C08BE005C018
:100C60008AE003C080E001C08CE029960FB6F894BA
:100C7000DEBF0FBECDBFDF91CF911F910F910895C1
:100C8000BF92CF92DF92EF92FF920F931F93CF9379
:100C9000DF93EC016B018D85811105C0CE010E94AF
:100CA0008503811105C01B861D861C8680E060C0FF
:100CB00040E060EFCE010E94320301E0E12CB12C54
:100CC00011E0CE010E94DF02F82ECE010E94DF0269
:100CD00091E0F91203C08130B1F434C02E2D30E020
:100CE000F8121BC08B85181738F4FE01E20FF31FB2
:100CF0008381802341F402C0811729F0F12C19303F
:100D000058F41C8709C0FE01EE0DF11D8381802B74
:100D10008383FF24F39409C0B12EFE01E20FF31F79
:100D20009381802F8095892383836F2DCE010E942C
:100D300003031F5F000F11F4E39401E087E08E15B9
:100D400008F0BFCF113408F4AECFBB86B11002C09B
:100D500081E08D878B81882309F4A5CFDE0113966E
:100D6000F6012B968D918193CA17DB07D9F781E0A5
:100D7000DF91CF911F910F91FF90EF90DF90CF9077
:100D8000BF900895009769F0FC0101900020E9F7F9
:100D90003197AF01481B590BBC0181E893E00C94DB
:100DA0000C0180E090E008958F929F92AF92BF92E5
:100DB0000F931F93CF93DF93CDB7DEB7A1970FB6F5
:100DC000F894DEBF0FBECDBF19A2423008F44AE04E
:100DD0008E010F5D1F4F842E912CA12CB12CA501EB
:100DE00094010E94620FE62FB901CA010150110956
:100DF000EA3014F4E05D01C0E95CD801EC93232BE8
:100E0000242B252B61F7C8010E94C206A1960FB6BC
:100E1000F894DEBF0FBECDBFDF91CF911F910F9130
:100E2000BF90AF909F908F900895CF92DF92EF92F6
:100E3000FF92CF93DF936B017C016DE281E893E039
:100E40000E949F01EC0166277727CB016C197D0971
:100E50008E099F094AE00E94D4068C0F9D1FDF91E6
:100E6000CF91FF90EF90DF90CF9008958F929F9257
:100E7000AF92BF92CF92DF92EF92FF920F931F93A8
:100E8000CF936B017C01B42E20E030E0A9010E94D9
:100E90007F0D87FF0BC06DE281E893E00E949F0108
:100EA0008C01F7FAF094F7F8F09402C000E010E03B
:100EB000C0E060E070E080E09FE3CB1541F020E00F
:100EC00030E040E251E40E94840DCF5FF6CFA701ED
:100ED00096010E94130D6B017C010E94F60D4B01DF
:100EE0005C014AE00E94D406080F191FCC23B9F117
:100EF000C501B4010E94250E9B01AC01C701B601DA
:100F00000E94120D6B017C016EE281E893E00E9469
:100F10009F01080F191F20E030E040E251E4C701B3
:100F2000B6010E94DC0E4B015C010E94F60D6B01C4
:100F3000E12CF12C4AE0C701B6010E94D406080F4B
:100F4000191FC701B6010E94250E9B01AC01C50106
:100F5000B4010E94120D6B017C01C150E1F6C80181
:100F6000CF911F910F91FF90EF90DF90CF90BF90A6
:100F7000AF909F908F900895CF93DF93282F30E00C
:100F8000F901E458FE4F8491F901E255FE4FD491E6
:100F9000F901E656FE4FC491CC2391F081110E94D5
:100FA0008705EC2FF0E0EE0FFF1FE057FE4FA591F5
:100FB000B491EC91ED2381E090E021F480E002C057
:100FC00080E090E0DF91CF9108951F93CF93DF935E
:100FD000282F30E0F901E458FE4F8491F901E255E1
:100FE000FE4FD491F901E656FE4FC491CC23C1F0D7
:100FF000162F81110E948705EC2FF0E0EE0FFF1FE6
:10100000EE58FE4FA591B4919FB7F894111104C00A
:101010008C91D095D82302C0EC91DE2BDC939FBF3E
:10102000DF91CF911F910895CF93DF9390E0FC0162
:10103000E255FE4F2491FC01E656FE4F8491882331
:1010400061F190E0880F991FFC01E859FE4FC591AE
:10105000D491FC01EE58FE4FA591B491611109C0E5
:101060009FB7F8948881209582238883EC912E2362
:101070000BC0623061F49FB7F8948881322F3095AD
:1010800083238883EC912E2B2C939FBF06C08FB7B0
:10109000F894E8812E2B28838FBFDF91CF9108959C
:1010A0008E3008F08E508770806480937C00809131
:1010B0007A00806480937A0080917A0086FDFCCF6C
:1010C000809178002091790090E0922B08953FB7AD
:1010D000F8948091370490913804A0913904B0912C
:1010E0003A0426B5A89B05C02F3F19F00196A11D13
:1010F000B11D3FBFBA2FA92F982F8827820F911DAE
:10110000A11DB11DBC01CD0142E0660F771F881FF4
:10111000991F4A95D1F708952FB7F8946091330439
:101120007091340480913504909136042FBF089556
:101130001F920F920FB60F9211242F933F938F930C
:101140009F93AF93BF938091330490913404A09107
:101150003504B09136043091320423E0230F2D374B
:1011600020F40196A11DB11D05C026E8230F0296AB
:10117000A11DB11D20933204809333049093340455
:10118000A0933504B09336048091370490913804CD
:10119000A0913904B0913A040196A11DB11D80932C
:1011A000370490933804A0933904B0933A04BF9164
:1011B000AF919F918F913F912F910F900FBE0F9004
:1011C0001F901895CF93DF93CDB7DEB761970FB619
:1011D000F894DEBF0FBECDBF789484B5826084BD25
:1011E00084B5816084BD85B5826085BD85B581602B
:1011F00085BD80916E00816080936E0010928100A9
:101200008091810082608093810080918100816063
:101210008093810080918000816080938000809124
:10122000B10084608093B1008091B00081608093B0
:10123000B00080917A00846080937A0080917A0077
:10124000826080937A0080917A00816080937A0036
:1012500080917A00806880937A001092C10061E0EA
:101260008DE00E94140861E08CE00E94140861E0A7
:101270008BE00E94140861E08AE00E94140861E09B
:1012800089E00E94140862E088E00E94140861E08E
:1012900088E00E94E50760E08DE00E94E50761E0DC
:1012A0008CE00E94E50760E08BE00E94E50760E0CB
:1012B0008AE00E94E50760E089E00E94E5070E945D
:1012C00067084B015C01EAE0CE2ED12CE12CF12C19
:1012D0000E946708DC01CB0188199909AA09BB099A
:1012E000883E9340A105B10598F321E0C21AD108C8
:1012F000E108F10848EE840E43E0941EA11CB11CE5
:10130000C114D104E104F10419F7E0919103F091C3
:10131000920382E08083E0918D03F0918E0310822E
:10132000E0918F03F091900380E180831092990304
:10133000E0919503F091960386E08083E09193031A
:10134000F0919403808180618083E0919303F09118
:101350009403808188608083E0919303F0919403EB
:10136000808180688083E0919303F0919403808171
:101370008F7D808386E291E00E94C20683E491E043
:101380000E94C206E0912404F0912504138615867C
:101390001486DF011B9633961E92AE17BF07E1F746
:1013A000109222041092230401E0BE016F5F7F4F70
:1013B00080912404909125040E944006882309F41A
:1013C00065C067E0CE0101960E94D202988589131C
:1013D000ECCF80911E04811127C08091240490914C
:1013E00025040E948503BE016F5F7F4F8091240416
:1013F000909125040E94660340E064EB80912404F0
:10140000909125040E943203809124049091250438
:101410000E94DF02182F80912404909125040E94DD
:101420008503112309F4FAC110911F0489818031C9
:1014300009F41CC2CE0101960E94FC05811718F424
:1014400080911F0409C08981803111F48CE004C0AF
:10145000CE0101960E94FC0580931F048091220416
:101460008F5F809322048981883209F4DAC138F4CD
:10147000803109F4D6C1823209F097CFD2C18B33C3
:1014800009F4CFC1823409F090CFCBC1F894109207
:10149000800010928100109285001092840082E1F9
:1014A0009AE79093890080938800809181008860FA
:1014B000809381008091810084608093810080917D
:1014C0006F00826080936F001092B10081EB809377
:1014D000B2001092B0008091B10087608093B1009B
:1014E00080917000816080937000789470E0272E66
:1014F00072E0372E01E010E088E00E94BC07909374
:10150000800380937F0380917E03882309F401C1C7
:101510000E948C082B013C0180917C0390917D03FB
:1015200086E491E00E94C20683E491E00E94C20634
:101530008EE491E00E94C206E0912404F09125041B
:10154000138615861486DF011B96CF0103961E9223
:101550008A179B07E1F7BE01665F7F4FCF010E94AC
:101560004006882309F488C167E0CE010A960E94EC
:10157000D2029989891380C1809124049091250415
:101580000E948503882309F4B9C1BE016F5F7F4FB4
:10159000CE010A960E94B005882309F4AFC168E025
:1015A000CE0101960E94D20299858913A7C12A8192
:1015B00030E0C901982F8827990F990F990F6981F9
:1015C000E8E06E9FB00111249C01262B372B8A8501
:1015D000803109F04FC1688570E08F81AB01481BF5
:1015E0005109CA019695982F8827979587950E944B
:1015F0004E0F60517109207F53E0220F331F5A951F
:10160000E1F7620F731F613854EE75070CF434C1B3
:10161000072E000C880B990B0E94270E20E030E06B
:1016200040E05CE30E94DC0E6B017C019B01AC019D
:101630000E94490F882309F425C18FE591E00E949B
:10164000C2068BE691E00E94C2060E948C084AE026
:101650000E94D40683E491E00E94C2064AE060E062
:1016600070E0CB010E94360783E491E00E94C2063D
:1016700024EBE22E22E0F22EF701619171917F01BD
:1016800080E090E04AE00E94D40683E791E00E9467
:10169000C20648EC52E04E155F0571F79CEEE92E4C
:1016A00091E0F92EF701619171917F0180E090E066
:1016B0004AE00E94D40683E791E00E94C2062E14FD
:1016C0003F0481F710927E034AE06FEF70E080E004
:1016D00090E00E94D40683E491E00E94C2066091EB
:1016E000EB0170E080E090E04AE00E94D40683E4E1
:1016F00091E00E94C2060E948C086419750986094F
:10170000970997FFF7C00E94150783E491E00E94B4
:10171000C20680917F0390918003892BE9F5E090C8
:101720000001F0900101F1E0EF16F104A9F50E942B
:101730008C088090E7019090E801A090E901B090BA
:10174000EA01DC01CB0188199909AA09BB09813991
:101750009140A105B10500F18DE00E94BC0761E058
:1017600068278DE00E94E50781E08093E601809183
:10177000E4019091E501019709F059C01092E5014B
:101780001092E4010E948C086093E7017093E801D5
:101790008093E9019093EA018091E601882311F199
:1017A0000E948C08C090E701D090E801E090E90128
:1017B000F090EA01DC01CB018C199D09AE09BF094B
:1017C0008D3D9540A105B105B8F50E948C08DC015E
:1017D000CB018C199D09AE09BF09893B9B40A1052E
:1017E000B105B0F5C090E401D090E5016C2D8BE01F
:1017F0000E94E507FF24F394CD2809F0F12C6F2D0A
:101800008DE00E94E5076F2D8AE00E94E5071093A6
:101810000101009300010E940E026ECE00931E048F
:1018200003CE809123048F5F80932304BECDF0927A
:10183000E501E092E401A6CF61E08091E40190919E
:10184000E501892B09F060E089E00E94E507BDCF42
:1018500061E08091E4019091E501892B09F060E05D
:1018600087E00E94E5071092E601BCCF1D3008F02A
:10187000E7CDECCDB901C7CEC12CD12C8EEFE82E2F
:1018800082ECF82E46015701E894B7F82FEF3FEFAE
:101890004FE75FE7C501B4010E94490F81110DC0F8
:1018A0002FEF3FEF4FE75FE7C501B4010E947F0DC7
:1018B00018161CF483E691E0C2CE2FEF3FEF4FE7FE
:1018C0005FE4C701B6010E94D70E18161CF487E624
:1018D00091E0B5CE2FEF3FEF4FE75FECC701B601C8
:1018E0000E947F0D87FDF3CF42E0C701B6010E9441
:1018F0003607A7CE4AE00E94D40607CF60E874EE10
:1019000082CE109284031092830388EE93E0A0E0CD
:10191000B0E08093850390938603A0938703B093F0
:10192000880326E031E0309382032093810325EC85
:1019300030E030938E0320938D0324EC30E030931D
:10194000900320938F0320EC30E030939203209398
:10195000910321EC30E0309394032093930322EC25
:1019600030E0309396032093950326EC30E03093DB
:1019700098032093970310929A0310929B0310925E
:101980009C0310929D0310923E0410923D0480939C
:101990003F0490934004A0934104B093420488E133
:1019A00091E090933C0480933B0460E082E00E94CD
:1019B0001408E0EBF1E0E491E0934704ECE9F1E096
:1019C000E491F0E0EE0FFF1FE057FE4F85919491F8
:1019D0009093490480934804109252041092540446
:1019E00010925304E2E5F4E0129284E0EA34F8073E
:1019F000D9F787E494E0909325048093240410920F
:101A000022041092230410921E0489E080931F0484
:101A100081E080932004809321041092310410927D
:101A2000300408955058BB27AA270E942A0D0C9411
:101A30009D0E0E948F0E38F00E94960E20F039F411
:101A40009F3F19F426F40C948C0E0EF4E095E7FBFE
:101A50000C94860EE92F0E94AE0E58F3BA17620757
:101A600073078407950720F079F4A6F50C94D00E3F
:101A70000EF4E0950B2EBA2FA02D0B01B9019001A9
:101A80000C01CA01A0011124FF27591B99F0593FED
:101A900050F4503E68F11A16F040A22F232F342F35
:101AA0004427585FF3CF469537952795A795F04083
:101AB0005395C9F77EF41F16BA0B620B730B840B98
:101AC000BAF09150A1F0FF0FBB1F661F771F881F50
:101AD000C2F70EC0BA0F621F731F841F48F48795A8
:101AE00077956795B795F7959E3F08F0B0CF93959A
:101AF000880F08F09927EE0F9795879508950E9413
:101B0000620E08F481E008950E94980D0C949D0ED9
:101B10000E94960E58F00E948F0E40F029F45F3F0D
:101B200029F00C94860E51110C94D10E0C948C0E4D
:101B30000E94AE0E68F39923B1F3552391F3951BE0
:101B4000550BBB27AA2762177307840738F09F5FDE
:101B50005F4F220F331F441FAA1FA9F335D00E2E4B
:101B60003AF0E0E832D091505040E695001CCAF7B8
:101B70002BD0FE2F29D0660F771F881FBB1F26177B
:101B800037074807AB07B0E809F0BB0B802DBF0152
:101B9000FF2793585F4F3AF09E3F510578F00C9421
:101BA000860E0C94D10E5F3FE4F3983ED4F38695F5
:101BB00077956795B795F7959F5FC9F7880F911D42
:101BC0009695879597F90895E1E0660F771F881F2E
:101BD000BB1F621773078407BA0720F0621B730BE1
:101BE000840BBA0BEE1F88F7E09508950E94B60E9D
:101BF00088F09F5798F0B92F9927B751B0F0E1F0CE
:101C0000660F771F881F991F1AF0BA95C9F714C07D
:101C1000B13091F00E94D00EB1E008950C94D00E36
:101C2000672F782F8827B85F39F0B93FCCF38695B6
:101C300077956795B395D9F73EF490958095709513
:101C400061957F4F8F4F9F4F0895E89409C097FB90
:101C50003EF490958095709561957F4F8F4F9F4F83
:101C60009923A9F0F92F96E9BB279395F6958795C7
:101C700077956795B795F111F8CFFAF4BB0F11F48A
:101C800060FF1BC06F5F7F4F8F4F9F4F16C0882331
:101C900011F096E911C0772321F09EE8872F762F67
:101CA00005C0662371F096E8862F70E060E02AF0A8
:101CB0009A95660F771F881FDAF7880F9695879594
:101CC00097F90895990F0008550FAA0BE0E8FEEF69
:101CD00016161706E807F907C0F012161306E407F0
:101CE000F50798F0621B730B840B950B39F40A26E9
:101CF00061F0232B242B252B21F408950A2609F4C7
:101D0000A140A6958FEF811D811D089597F99F67CA
:101D100080E870E060E008959FEF80EC0895002473
:101D20000A941616170618060906089500240A9440
:101D300012161306140605060895092E0394000CC6
:101D400011F4882352F0BB0F40F4BF2B11F460FF55
:101D500004C06F5F7F4F8F4F9F4F089557FD90587E
:101D6000440F551F59F05F3F71F04795880F97FB5F
:101D7000991F61F09F3F79F0879508951216130619
:101D80001406551FF2CF4695F1DF08C01616170648
:101D90001806991FF1CF869571056105089408957D
:101DA000E894BB2766277727CB0197F908950E940F
:101DB000620E08F48FEF08950E94EF0E0C949D0EB2
:101DC0000E948F0E38F00E94960E20F0952311F09D
:101DD0000C94860E0C948C0E11240C94D10E0E943F
:101DE000AE0E70F3959FC1F3950F50E0551F629FA3
:101DF000F001729FBB27F00DB11D639FAA27F00D64
:101E0000B11DAA1F649F6627B00DA11D661F829F8A
:101E10002227B00DA11D621F739FB00DA11D621F6F
:101E2000839FA00D611D221F749F3327A00D611D8C
:101E3000231F849F600D211D822F762F6A2F11246E
:101E40009F5750409AF0F1F088234AF0EE0FFF1FA1
:101E5000BB1F661F771F881F91505040A9F79E3FF8
:101E6000510580F00C94860E0C94D10E5F3FE4F384
:101E7000983ED4F3869577956795B795F795E7954E
:101E80009F5FC1F7FE2B880F911D9695879597F957
:101E900008950E94620E880B990B089597FB072EF8
:101EA00016F4009407D077FD09D00E94840F07FC38
:101EB00005D03EF4909581959F4F0895709561955A
:101EC0007F4F0895A1E21A2EAA1BBB1BFD010DC076
:101ED000AA1FBB1FEE1FFF1FA217B307E407F507DA
:101EE00020F0A21BB30BE40BF50B661F771F881FB6
:101EF000991F1A9469F760957095809590959B014C
:101F0000AC01BD01CF010895AA1BBB1B51E107C065
:101F1000AA1FBB1FA617B70710F0A61BB70B881F79
:101F2000991F5A95A9F780959095BC01CD01089508
:101F3000EE0FFF1F0590F491E02D099481E090E0F1
:0A1F4000F8940C94A30FF894FFCF5F
:101F4A000100000000009F010C013601EC0167014D
:101F5A0045015901000000006302580275024A0255
:101F6A0051024E024B0255727369434E4320736508
:101F7A007269616C2070726F6D742073746172740F
:101F8A006564000D0A0055727369434E4300546537
:101F9A006D70657261747572652069733A20006E9E
:101FAA00616E00696E66006F7666002C2054696D5A
:061FBA00653A002C000056
:00000001FF
