:100000000C94E2000C940A010C940A010C940A016D
:100010000C940A010C940A010C940A010C940A0134
:100020000C940A010C9483080C940A010C9499080E
:100030000C940A010C940A010C940A010C940A0114
:100040000C940F050C940A010C940E040C94E80314
:100050000C940A010C940A010C940A010C940A01F4
:100060000C9455070C940A01005EBCE2613FDD83ED
:10007000C29C7E20A3FD1F419DC3217FFCA2401E88
:100080005F01E3BD3E6082DC237D9FC1421CFEA078
:10009000E1BF5D0380DE3C62BEE0025CDF81633D68
:1000A0007C22C09E1D43A1FF4618FAA427799BC558
:1000B00084DA3866E5BB5907DB856739BAE4065848
:1000C0001947A5FB7826C49A653BD987045AB8E638
:1000D000A7F91B45C6987A24F8A6441A99C7257B28
:1000E0003A6486D85B05E7B98CD2306EEDB3510F18
:1000F0004E10F2AC2F7193CD114FADF3702ECC9208
:10010000D38D6F31B2EC0E50AFF1134DCE90722CF7
:100110006D33D18F0C52B0EE326C8ED0530DEFB1E7
:10012000F0AE4C1291CF2D73CA947628ABF51749D7
:100130000856B4EA6937D58B5709EBB536688AD4C7
:1001400095CB2977F4AA4816E9B7550B88D6346AB7
:100150002B7597C94A14F6A8742AC896154BA9F7A7
:10016000B6E80A54D7896B35000000002400270048
:100170002A0000000000250028002B0000000008D5
:10018000000201000003040700000000000000005E
:1001900000000000230026002900040404040404D5
:1001A0000404020202020202030303030303010226
:1001B00004081020408001020408102001020408F5
:1001C0001020261011241FBECFEFD8E0DEBFCDBF18
:1001D00011E0A0E0B1E0E6E3F7E202C005900D9285
:1001E000AA39B107D9F723E0AAE9B1E001C01D920D
:1001F000A433B207E1F710E0C2EED0E004C02197CB
:10020000FE010E948E13C13ED107C9F70E947F0CE8
:100210000C9499130C940000CF92DF92EF92FF920E
:100220000F931F93CF93DF936C017A018B01C0E092
:10023000D0E0CE15DF0589F0D8016D918D01D60192
:10024000ED91FC910190F081E02DC6010995892B7B
:1002500011F47E0102C02196ECCFC701DF91CF914E
:100260001F910F91FF90EF90DF90CF900895FC01C8
:10027000538D448D252F30E0842F90E0821B930B0B
:10028000541710F0CF96089501970895FC01918DB1
:10029000828D981761F0828DDF01A80FB11D5D96E8
:1002A0008C91928D9F5F9F73928F90E008958FEF56
:1002B0009FEF0895FC01918D828D981731F0828D0A
:1002C000E80FF11D858D90E008958FEF9FEF089561
:1002D000FC01918D228D892F90E0805C9F4F821BC5
:1002E00091098F739927089580E592E00E94680133
:1002F00021E0892B09F420E0822F0895FC01848DF0
:10030000DF01A80FB11DA35ABF4F2C91848D90E03F
:1003100001968F739927848FA689B7892C93A0891A
:10032000B1898C9180648C93938D848D981306C0D1
:100330000288F389E02D80818F7D80830895EF927C
:10034000FF920F931F93CF93DF93EC0181E0888F8F
:100350009B8D8C8D981305C0E889F989808185FD76
:1003600024C0F62E0B8D10E00F5F1F4F0F73112767
:10037000E02E8C8DE8120CC00FB607FCFACFE8898E
:10038000F989808185FFF5CFCE010E947E01F1CFF2
:100390008B8DFE01E80FF11DE35AFF4FF0820B8FAA
:1003A000EA89FB898081806207C0EE89FF896083CA
:1003B000E889F98980818064808381E090E0DF9121
:1003C000CF911F910F91FF90EF900895CF93DF93FE
:1003D000EC01888D8823C9F0EA89FB89808185FD3D
:1003E00005C0A889B9898C9186FD0FC00FB607FC9E
:1003F000F5CF808185FFF2CFA889B9898C9185FFDF
:10040000EDCFCE010E947E01E7CFDF91CF9108951D
:1004100080E090E0892B29F00E94740181110C94F6
:1004200000000895833081F028F4813099F0823003
:10043000A1F008958730A9F08830B9F08430D1F464
:10044000809180008F7D03C0809180008F778093A2
:100450008000089584B58F7702C084B58F7D84BDF8
:1004600008958091B0008F7703C08091B0008F7D98
:100470008093B00008953FB7F8948091E701909180
:10048000E801A091E901B091EA0126B5A89B05C059
:100490002F3F19F00196A11DB11D3FBFBA2FA92F03
:1004A000982F8827820F911DA11DB11DBC01CD0180
:1004B00042E0660F771F881F991F4A95D1F708956C
:1004C00021E001C0220F6A95EAF7DC011C962C930B
:1004D0001C971A965C934E931997ED91FC910484A6
:1004E000F585E02D60E00994DC01ED91FC91068436
:1004F000F785E02D41E0099581E090E008950895A9
:10050000089585ED8093BC008091BC0084FDFCCFF4
:1005100010922B0208954091BF01262F30E0240F46
:10052000311D21323105DCF420912B022430C9F435
:10053000FC0180E090E0861758F43091BF012191D2
:10054000DC01A356BE4FA30FB11D2C930196F3CF30
:100550008091BF01680F6093BF0180E0089581E042
:10056000089582E00895089581E090E03091E501DA
:100570002091E401321710F480E090E0919581958C
:10058000910908958091E5019091E401891730F473
:100590008F5F8093E50180E090E008958FEF9FEFFB
:1005A00008958091E40190E02091E501821B91097A
:1005B0000895CF92DF92EF92FF920F931F93CF9304
:1005C000DF937C01262F972F8A0180912C028823AC
:1005D00091F0C62FD72F6E01C40ED51ECC15DD05A8
:1005E00071F06991D701ED91FC910190F081E02DBE
:1005F000C7010995F3CF642F822F0E948B02C80197
:10060000DF91CF911F910F91FF90EF90DF90CF90EE
:100610000895CF93DF931F92CDB7DEB76983209102
:100620002C022223D1F020914F02203240F021E011
:1006300030E0FC013383228380E090E015C080919C
:100640002D02E82FF0E0E25DFD4F998190838F5FEE
:1006500080932D0280934F0205C061E0CE01019688
:100660000E948B0281E090E00F90DF91CF9108957E
:10067000089580E090E00895FC0123812223B9F0E1
:100680009181909569236083828191E090932C02FF
:1006900080934E0210922D0210924F028DEE92E046
:1006A0000E9409030E94220C282F30E002C020E0A3
:1006B00030E081E090E0232B11F080E090E008959D
:1006C000EF92FF920F931F93CF938C01FC017596CD
:1006D00084E0C0E060FF02C09081C92B6695815024
:1006E00031968111F7CF413011F4F8014489F801B6
:1006F0008585C82BC42B7801FEE0EF0EF11CF801B4
:1007000062896C2BC7010E943C03F80162896095E5
:100710006C23C701CF911F910F91FF90EF900C9424
:100720003C030F931F93CF93DF93062F0F7042303C
:1007300019F440E0602F10C0142F262FEC0130E098
:10074000B90184E0759567958A95E1F7CE010E941D
:100750006003412F602FCE01DF91CF911F910F9148
:100760000C946003FC0184858823A9F021853285DF
:100770002115310519F4611106C007C0213031057A
:1007800021F4611102C0858701C015866585CF01FE
:100790000E960C943C030895DC01ED91FC910190C0
:1007A000F081E02D09946115710579F0FB0101904C
:1007B0000020E9F73197AF01461B570BDC01ED91A3
:1007C000FC910280F381E02D099480E090E008958F
:1007D0001F920F920FB60F9211242F933F934F93B6
:1007E0005F936F937F938F939F93AF93BF93EF9399
:1007F000FF9380E592E00E947E01FF91EF91BF910F
:10080000AF919F918F917F916F915F914F913F91A8
:100810002F910F900FBE0F901F9018951F920F925F
:100820000FB60F9211242F938F939F93EF93FF9303
:10083000E0916002F09161028081E0916602F091A6
:10084000670282FD12C09081809169028F5F8F7371
:1008500020916A02821751F0E0916902F0E0E05BBA
:10086000FD4F958F8093690201C08081FF91EF91C8
:100870009F918F912F910F900FBE0F901F90189501
:10088000CF93DF93282F30E0F901E458FE4F849195
:10089000F901E255FE4FD491F901E656FE4FC4919D
:1008A000CC2391F081110E941202EC2FF0E0EE0FA8
:1008B000FF1FE057FE4FA591B491EC91ED2381E02D
:1008C00090E021F480E002C080E090E0DF91CF91E1
:1008D00008951F93CF93DF93282F30E0F901E45858
:1008E000FE4F8491F901E255FE4FD491F901E6568D
:1008F000FE4FC491CC23C9F0162F81110E94120221
:10090000EC2FF0E0EE0FFF1FEE58FE4FA591B491D3
:100910008FB7F894111105C09C91ED2FE095E92354
:1009200002C0EC91ED2BEC938FBFDF91CF911F9123
:100930000895CF93DF9390E0FC01E255FE4F2491A0
:10094000FC01E656FE4F8491882361F190E0880F08
:10095000991FFC01E859FE4FC591D491FC01EE5856
:10096000FE4FA591B491611109C09FB7F894888199
:10097000209582238883EC912E230BC0623061F492
:100980009FB7F8943881822F809583238883EC91D8
:100990002E2B2C939FBF06C08FB7F894E8812E2B87
:1009A00028838FBFDF91CF9108958F929F92AF924E
:1009B000BF92CF92DF92EF92FF926B017C010E9477
:1009C0003B024B015C01C114D104E104F104F1F0DC
:1009D0000E943B02DC01CB0188199909AA09BB09D5
:1009E000883E9340A105B10570F321E0C21AD108F9
:1009F000E108F10888EE880E83E0981EA11CB11C66
:100A0000C114D104E104F10419F7DDCFFF90EF9098
:100A1000DF90CF90BF90AF909F908F9008951F92DE
:100A20000F920FB60F9211242F933F938F939F93A2
:100A3000AF93BF938091EB019091EC01A091ED01F8
:100A4000B091EE013091E60123E0230F2D3720F421
:100A50000196A11DB11D05C026E8230F0296A11D18
:100A6000B11D2093E6018093EB019093EC01A093DC
:100A7000ED01B093EE018091E7019091E801A09122
:100A8000E901B091EA010196A11DB11D8093E70132
:100A90009093E801A093E901B093EA01BF91AF916F
:100AA0009F918F913F912F910F900FBE0F901F90AC
:100AB0001895DC01E0E0615038F08D91E827F0E016
:100AC000E859FF4FE491F7CF8E2F0895FC019081F4
:100AD0000180F281E02DF8948181892B818322812C
:100AE000892F809528232283A7E0B0E01197F1F7A2
:100AF000218182238183A3E2B0E01197F1F7808105
:100B00007894EFECF0E03197F1F7982381E009F465
:100B100080E00895FC0190810180F281E02D892F11
:100B2000809560FF12C0F8942281822382838181A4
:100B3000892B8183A3E2B0E01197F1F78281982B92
:100B40009283789487ED90E011C0F89422818223FB
:100B500082838181892B8183AFEFB0E01197F1F718
:100B60008281982B928378948FE090E00197F1F73F
:100B70000895CF92DF92EF92FF920F931F93CF933E
:100B8000DF931F92CDB7DEB76C01E62E08E010E0D0
:100B9000FF24F39461E08F2D8E2109F460E0C601FB
:100BA00049830E948A05FF0C0150110949810115F2
:100BB000110581F7411115C0F894D6011196ED91F8
:100BC000FC91129791818C91809589238183119654
:100BD000ED91FC91129792818C918095892382836B
:100BE00078940F90DF91CF911F910F91FF90EF902C
:100BF000DF90CF900895CF92DF92EF92FF920F9304
:100C00001F93CF93DF931F92CDB7DEB78C01F62EE3
:100C100040E065E579830E94B905CF2C7981D72E14
:100C2000760188E0E80EF11CF60161916F0140E069
:100C3000C8010E94B905CE14DF04B1F70F90DF910F
:100C4000CF911F910F91FF90EF90DF90CF9008957B
:100C5000FC0190810180F281E02DF8948181292F9F
:100C600020958223818378948DE743E050E0815082
:100C700021F1DA011197F1F730813923C1F3F894AA
:100C80008281822382838181892B81837894ABE75F
:100C9000B7E01197F1F7F894818128232183A3E12C
:100CA000B1E01197F1F78081982381E009F080E0AD
:100CB0007894E3E6F6E03197F1F70895DC01ED91E1
:100CC000FC910684F785E02D40E009940F931F9373
:100CD000CF93DF93EC01423018F08C8188608C83D5
:100CE0004F836887222329F0413019F48C81846076
:100CF0008C8364E670E080E090E00E94D5046C8113
:100D000064FD31C0E881F9810684F785E02D42E079
:100D100063E0CE0109958BE496E40197F1F7E88151
:100D2000F9810684F785E02D42E063E0CE01099564
:100D300003E512E0C8010197F1F7E881F981068423
:100D4000F785E02D42E063E0CE010995C8010197E7
:100D5000F1F7E881F9810684F785E02D42E062E051
:100D6000CE01099517C06062CE010E945E068BE439
:100D700096E40197F1F76C816062CE010E945E06F5
:100D800003E512E0C8010197F1F76C816062CE01C2
:100D90000E945E06C8010197F1F76C816062CE0186
:100DA0000E945E068BEE90E00197F1F784E08D8360
:100DB0006CE0CE010E945E0661E0CE010E945E06FC
:100DC0008BE39FE10197F1F782E08E8366E0CE012D
:100DD0000E945E06E881F9810484F585E02D6FEFBD
:100DE000CE01DF91CF911F910F910994EF92FF9265
:100DF0000F931F93CF93DF93EC01062FF42EE22E77
:100E00008B85888B1092E5011092E40110922D02DF
:100E100010924F0210922B0211E010932A021092AE
:100E2000050261E082E10E94690461E083E10E94C1
:100E300069048091B9008E7F8093B9008091B900D8
:100E40008D7F8093B90088E48093B80085E4809317
:100E5000BC00888910932C0280934E0210922D02C0
:100E600010924F020E94220C91E0811190E0998B28
:100E7000992329F08DEE92E00E94C2028E87898923
:100E8000882339F01F861C8260E0CE010E960E94F6
:100E90003C032E2D4F2D602FCE01DF91CF911F915E
:100EA0000F91FF90EF900C9466061F920F920FB671
:100EB0000F9211242F933F934F935F936F937F93E0
:100EC0008F939F93AF93BF93EF93FF938091B9005C
:100ED000887F803609F49CC068F5883209F45BC0CD
:100EE00090F4803109F454C038F4882309F4F6C032
:100EF000883009F44DC0F6C0883109F44CC0803206
:100F000009F45DC0EFC0803409F468C048F4803350
:100F100009F455C0883309F0E5C080932902D8C090
:100F2000803509F44FC0883509F45DC0883409F074
:100F3000D9C0D6C0883909F4C7C0A8F4883709F4E5
:100F400067C038F4883609F463C0803709F460C09C
:100F5000C9C0883809F4B8C0803909F45FC0803846
:100F600009F0C0C05BC0803B09F486C038F4803A09
:100F700009F466C0883A09F47FC0B4C0803C09F423
:100F8000A7C0883C09F4A4C0883B09F48AC0AAC061
:100F90008091060210C09091280280912702981734
:100FA00070F5E091280281E08E0F80932802F0E036
:100FB000E95FFD4F80818093BB0085EC86C0809304
:100FC00029028EC0E091280281E08E0F80932802D2
:100FD0008091BB00F0E0E95FFD4F80839091280293
:100FE000809127026EC0E091280281E08E0F8093ED
:100FF00028028091BB00F0E0E95FFD4F8083809183
:101000002A0281116DC081E08093050284EA61C0EB
:1010100083E080932B021092E301CFCF8091E30114
:10102000803208F051C0E091E30181E08E0F80939F
:10103000E3018091BB00F0E0ED53FE4F8083BDCF14
:1010400085EC8093BC0010922B028091E3018032EA
:1010500030F4E091E301F0E0ED53FE4F1082609137
:10106000E30170E0E091C101F091C20183EC91E0F5
:1010700009951092E30136C084E080932B02109210
:10108000C0011092BF01E091BD01F091BE01099530
:101090008091BF01811105C081E08093BF01109252
:1010A0009D01E091C00181E08E0F8093C001F0E0CE
:1010B000E356FE4F80818093BB009091C0018091E8
:1010C000BF01981708F479CF85E88093BC000AC067
:1010D00085EC8093BC0010922B0204C01092290270
:1010E0000E948102FF91EF91BF91AF919F918F91EB
:1010F0007F916F915F914F913F912F910F900FBE14
:101100000F901F9018951F920F920FB60F921124F7
:101110008F9381EB8093B20080919C018F5F8093CD
:101120009C0180939C018F910F900FBE0F901F9098
:1011300018951F920F920FB60F9211242F933F9381
:101140004F935F936F937F938F939F93AF93BF93CF
:10115000EF93FF9389E00E94400461E0682789E0F3
:101160000E94690480919C018093EF0110929C0180
:1011700080911803909119030E94280640E06CECBE
:1011800080911803909119030E94B90540911203B0
:1011900064E480911803909119030E94B90580E4DA
:1011A00080937C0080917A00806480937A008091A3
:1011B0007A0086FDFCCF809178002091790090E044
:1011C000922B9093F1018093F00181E08093F201E2
:1011D000FF91EF91BF91AF919F918F917F916F910F
:1011E0005F914F913F912F910F900FBE0F901F90E5
:1011F00018954F925F926F927F92EF92FF920F93AA
:101200001F93CF93DF93CDB7DEB7A1970FB6F894B6
:10121000DEBF0FBECDBF7C01FA01CB0119A2223087
:1012200008F42AE08E010F5D1F4F422E512C612CD5
:10123000712CBF01A30192010E943913F901CA0167
:10124000015011096A3014F4605D01C0695CD80175
:101250006C93232B242B252B61F7B801C7010E9427
:10126000D303A1960FB6F894DEBF0FBECDBFDF91BA
:10127000CF911F910F91FF90EF907F906F905F90B3
:101280004F9008954F925F926F927F928F929F92AC
:10129000AF92BF92CF92DF92EF92FF92CF93DF9304
:1012A000EC016A017B01B22E9A01AB01C701B601C4
:1012B0000E942013882319F06AE371E027C02601F9
:1012C0003701E89477F82FEF3FEF4FE75FE7C3016F
:1012D000B2010E94201381110DC02FEF3FEF4FE7A5
:1012E0005FE7C301B2010E94561118161CF46EE3A9
:1012F00071E00CC02FEF3FEF4FE75FE4C701B6018D
:101300000E94AE1218169CF462E471E0CE01DF91E7
:10131000CF91FF90EF90DF90CF90BF90AF909F90D4
:101320008F907F906F905F904F900C94D3032FEF2E
:101330003FEF4FE75FECC701B6010E94561187FDF2
:10134000E3CF20E030E0A901C701B6010E945611A9
:1013500087FF0AC06DE2CE010E94CC034C01F7FA70
:10136000F094F7F8F09402C0812C912CA12C60E04D
:1013700070E080E09FE3AB1441F020E030E040E219
:1013800051E40E945B11A394F6CF9B01AC01C7010D
:10139000B6010E94EA102B013C010E94CD116B01A5
:1013A0007C010E94FC119B01AC01C301B2010E94AF
:1013B000E9102B013C012AE0B701A601CE010E94F1
:1013C000F9087C01E80CF91CBB2031F06EE2CE017B
:1013D0000E94CC03E80EF91EDB2CDD2029F120E071
:1013E00030E040E251E4C301B2010E94B3122B018C
:1013F0003C010E94CD114B01A12CB12C2AE0B5017A
:10140000A401CE010E94F908E80EF91EC501B4013D
:101410000E94FC119B01AC01C301B2010E94E910C2
:101420002B013C01DA94D9CFC701DF91CF91FF9016
:10143000EF90DF90CF90BF90AF909F908F907F9074
:101440006F905F904F9008950E949413CF93DF9315
:10145000CDB7DEB728970FB6F894DEBF0FBECDBF6D
:101460001D8290E49E8324E12F8324E5288719823E
:101470009A8390E19B8390E59C8390910003691788
:1014800010F06FEF690F40910103262F30E0FE014D
:10149000E20FF31F403121F4943011F4918101C027
:1014A0009581682F690F606889EF92E028960FB6E2
:1014B000F894DEBF0FBECDBFDF91CF910C945E06D6
:1014C0008F929F92AF92BF92CF92DF92EF92FF9254
:1014D0000F931F93CF93DF938C01EB01809118033F
:1014E000909119030E942806882309F43DC0B80191
:1014F00080911803909119030E94FB0540E06EEB68
:1015000080911803909119030E94B9058E015E0124
:1015100089E0A80EB11C809018039090190388E010
:10152000C82ED12CEE24E394F12CC4010E94660550
:101530008111FE28EE0CE1E0CE1AD108B1F7F801D6
:10154000F1928F01EA15FB0531F780911803909114
:1015500019030E942806813039F468E0CE010E9408
:10156000590591E02885821390E0892FDF91CF9172
:101570001F910F91FF90EF90DF90CF90BF90AF90B1
:101580009F908F900895AF92BF92CF92DF92EF928B
:10159000FF920F931F93CF93DF931F92CDB7DEB7C8
:1015A0005C01D62EE72EFC018585811105C0C501A1
:1015B0000E942806811106C0F5011386158614863F
:1015C00080E065C040E060EFC5010E94B90501E020
:1015D000F12CC12C11E0C5010E946605682FC501E0
:1015E00069830E9466056981613019F48130B9F41C
:1015F00033C04F2D50E068131BC0F50183851817C9
:1016000030F4E40FF51F8381802349F402C01817DA
:1016100031F060E0193058F4F501148708C0F50185
:10162000EF0DF11D8381802B838361E009C0C12E02
:10163000F501E40FF51F9381802F80958923838323
:10164000C5010E948A051F5F000F11F4F39401E0A9
:10165000F7E0FF1508F0BFCF113408F4ADCFF50166
:10166000C386C11002C081E08587F501838188238C
:1016700009F4A2CFD5011396ED2DFE2D9501255F1E
:101680003F4F8D918193A217B307D9F781E00F9057
:10169000DF91CF911F910F91FF90EF90DF90CF904E
:1016A000BF90AF9008950F931F93CF93DF938C015A
:1016B000D62FE0911803F09119031386158614862E
:1016C000DF011B9633961E92AE17BF07E1F7C0E00D
:1016D000B80180911803909119030E94C30A8111E7
:1016E00002C080E010C0CD130AC067E0C8010E94AC
:1016F0005905F8019781891302C081E004C0CF5FCA
:10170000DC1778F3E5CFDF91CF911F910F9108950A
:10171000CF93DF93CDB7DEB761970FB6F894DEBFF6
:101720000FBECDBF682FCE010A960E94530B8111C8
:1017300005C060E070E08EEF92EC49C0BE016F5FC3
:101740007F4FCE010A960E94600A882359F1698171
:1017500048E0649FB00111248A81282F30E0322FA5
:101760002227330F330F330F262B372B8A858031F7
:10177000E1F4688570E08F81AB01481B5109CA0113
:101780009695982F8827979587950E9425136051E5
:101790007109207F53E0220F331F5A95E1F7620F42
:1017A000731F04C060E874EE01C0B901613854EEE3
:1017B00075070CF4BECF072E000C880B990B0E9406
:1017C000FE1120E030E040E05CE30E94B31261963D
:1017D0000FB6F894DEBF0FBECDBFDF91CF91089555
:1017E000CF93DF93CDB7DEB729970FB6F894DEBF5E
:1017F0000FBECDBFFC0120812031D1F0BE016F5F53
:101800007F4F0E94600A882389F08D818F3361F0B9
:1018100020F48F3159F489E00CC08F3519F08F37DF
:1018200039F004C08BE005C08AE003C080E001C04D
:101830008CE029960FB6F894DEBF0FBECDBFDF91C6
:10184000CF91089520914F0290914E02213208F0DD
:101850004AC080912B028111FCCF32E030932B02E1
:1018600031E030932A023FEF309329021092280290
:1018700020932702AEE2B2E047E052E0FA013E2FA9
:10188000341B321718F43D913193F9CF10920602B0
:1018900020910602990F922B9093060290910502D7
:1018A000913061F410920502909106029093BB0072
:1018B0009091BC0093FDF8CF95EC01C095EE90930C
:1018C000BC0090912B029230E1F3909129029F3F4E
:1018D00079F080912902803241F080912902803391
:1018E00031F084E005C081E003C082E001C083E004
:1018F00010922D0210924F0210922C020895CF9355
:10190000DF93CDB7DEB761970FB6F894DEBF0FBE99
:10191000CDBF789484B5826084BD84B5816084BD78
:1019200085B5826085BD85B5816085BD80916E007D
:10193000816080936E0010928100809181008260AE
:1019400080938100809181008160809381008091EB
:1019500080008160809380008091B10084608093DA
:10196000B1008091B00081608093B00080917A00D6
:10197000846080937A0080917A00826080937A00FC
:1019800080917A00816080937A0080917A008068EB
:1019900080937A001092C10020E042E060E189EF7C
:1019A00092E00E94F60640E050E063E089EF92E0AA
:1019B0000E94600261E089EF92E00E94B20361E060
:1019C0008DE00E94990461E089E00E94990461E041
:1019D0008BE00E94990461E08AE00E94990460E033
:1019E00088E00E94990461E088E00E9469046AE04E
:1019F00070E080E090E00E94D50460E08DE00E94FD
:101A0000690461E089E00E94690460E08BE00E9463
:101A1000690460E08AE00E946904E0916002F0914C
:101A2000610282E08083E0915C02F0915D021082AD
:101A3000E0915E02F0915F0280E180831092680283
:101A4000E0916402F091650286E08083E091620299
:101A5000F0916302808180618083E0916202F09165
:101A60006302808188608083E0916202F09163026A
:101A7000808180688083E0916202F09163028081BE
:101A80008F7D808366E471E080E592E00E94D3035D
:101A900063E671E080E592E00E94D303E0911803D1
:101AA000F0911903138615861486DF011B96339671
:101AB0001E92AE17BF07E1F710921603109217039C
:101AC00011E0BE016F5F7F4F809118039091190361
:101AD0000E94C30A882309F45EC067E0CE01019624
:101AE0000E94590598858913ECCF809112038111CA
:101AF00027C080911803909119030E942806BE0107
:101B00006F5F7F4F80911803909119030E94FB052E
:101B100040E064EB80911803909119030E94B9058D
:101B200080911803909119030E946605082F8091F7
:101B30001803909119030E942806002309F478C223
:101B400000911303CE0101960E94F00B801718F448
:101B50008091130304C0CE0101960E94F00B809384
:101B60001303809116038F5F809316038981883257
:101B700061F030F4803149F0823209F0A2CF05C023
:101B80008B3319F0823409F09CCF809117038F5F5B
:101B90008093170396CF60E085EF91E00E94530B8E
:101BA00085EF91E00E94F00B893009F49DC0BE01E1
:101BB0006F5F7F4F85EF91E00E94600A882309F4F0
:101BC00093C08091F501803109F48EC08FE18D833F
:101BD00080911803909119030E94280665EF71E027
:101BE00080911803909119030E94FB0540E06EE478
:101BF00080911803909119030E94B90540E06B8110
:101C000080911803909119030E94B90540E06C81FE
:101C100080911803909119030E94B9058091F501F4
:101C2000803141F040E06D8180911803909119035B
:101C30000E94B90580911803909119030E9428060B
:101C400065EF71E080911803909119030E94FB05E4
:101C50004091120368E480911803909119030E9447
:101C6000B90564E170E080E090E00E94D5048091C5
:101C70001203882331F06AE070E080E090E00E9477
:101C8000D50480911803909119030E942806809131
:101C90001303893008F489E080931303893021F11C
:101CA00089E08093130300E010E08091160390E038
:101CB00008171907CCF4602FCE010A960E94530B27
:101CC000F0901303CE010A960E94F00B8F1518F4C2
:101CD0008091130304C0CE010A960E94F00B8093FA
:101CE00013030F5F1F4FE1CF85EF91E00E94F00BD0
:101CF000482F50E060E070E02AE080E592E00E942A
:101D0000F90863E671E080E592E00E94D303F8945D
:101D10001092800010928100109285001092840031
:101D200082E19AE7909389008093880080918100F6
:101D3000886080938100809181008460809381001D
:101D400080916F00826080936F001092B10081EBF0
:101D50008093B2001092B0008091B10087608093B0
:101D6000B1008091700081608093700078948091C0
:101D7000160390E09093F4018093F30162E089EF01
:101D800092E00E945E068BE39FE10197F1F766E621
:101D900071E089EF92E00E94D3032EE4F22E34EB3F
:101DA000832E3BE2932E31E1A32EB12C01E010E013
:101DB00088E00E9440049093040280930302809183
:101DC000F201882309F4BCC0F0927C0062E070E06C
:101DD00080E090E00E94D50480917A008064809336
:101DE0007A0080917A0086FDFCCF80917800209166
:101DF000790030E0322F2227A901330F660B770BD1
:101E00009A01AB01282BC501B4010E945B13CA01E2
:101E1000B9010E94FE112B013C01C090F001D0904D
:101E2000F10161E080E00E94260A4091EF0150E05C
:101E300060E070E02AE089EF92E00E94F90861E03A
:101E400083E00E94260A6EE671E089EF92E00E942C
:101E5000D30381E00E94880BAB01BC0121E089EF34
:101E600092E00E94420966E671E080E592E00E94FD
:101E7000D30363E671E080E592E00E94D30362E75A
:101E800071E080E592E00E94D30380E00E94880B1D
:101E9000AB01BC0122E080E592E00E94420963E8C8
:101EA00071E080E592E00E94D3038FB7F8944091EF
:101EB000EB015091EC016091ED017091EE018FBF4B
:101EC0002AE080E592E00E94F90863E671E080E58F
:101ED00092E00E94D3032AE0B301A20180E592E0E0
:101EE0000E94420963E671E080E592E00E94D3031C
:101EF000B6016E5F7140072E000C880B990B0E9493
:101F0000FE11A30192010E94B31220E030E040E8EC
:101F10005AE30E94B31220E030E048EC52E40E9401
:101F20005B11AB01BC012AE080E592E00E9442090E
:101F300063E671E080E592E00E94D3031092F20123
:101F40008091030290910402892B09F055C0C09042
:101F50000001D090010121E0C216D10409F04CC06B
:101F60002FB7F8948091EB019091EC01A091ED01D5
:101F7000B091EE012FBF4091FF015091000260919E
:101F8000010270910202841B950BA60BB70B8139DD
:101F90009140A105B10580F18DE00E94400461E00F
:101FA00068278DE00E9469048091FD019091FE01F7
:101FB000019709F040C01092FE011092FD0160E00F
:101FC0008AE00E94260A6BE871E089EF92E00E94A5
:101FD000D3032FB7F8948091EB019091EC01A0917D
:101FE000ED01B091EE012FBF8093FF0190930002AD
:101FF000A0930102B09302026090FD017090FE0177
:10200000662D8BE00E946904DD24D394672809F0D3
:10201000D12C6D2D8DE00E9469046D2D8AE00E9407
:10202000690410930101009300010E940802C0CED0
:102030001093120385CDD092FE01C092FD0160E0A5
:102040008AE00E94260A62E971E0BFCF1092530233
:102050001092520288EE93E0A0E0B0E08093540228
:1020600090935502A0935602B093570226E031E0B8
:10207000309351022093500225EC30E030935D0202
:1020800020935C0224EC30E030935F0220935E02E8
:1020900020EC30E0309361022093600221EC30E0CC
:1020A000309363022093620222EC30E030936502A9
:1020B0002093640226EC30E030936702209366029E
:1020C0001092690210926A0210926B0210926C02D6
:1020D0001092F0021092EF028093F1029093F202BC
:1020E000A093F302B093F40288E191E09093EE02A2
:1020F0008093ED0260E082E00E949904E0EBF1E061
:10210000E491E0932603ECE9F1E0E491F0E0EE0FD6
:10211000FF1FE057FE4F8591949190932803809381
:102120002703109231031092330310923203E1E33C
:10213000F3E0129283E0E932F807D9F786E293E000
:1021400090931903809318031092160310921703AB
:102150001092120389E08093130381E080931403AB
:102160008093150310922503109224031092FC0211
:102170001092FB022AE231E03093FA022093F90236
:10218000109209039FEF9093080310920703109297
:102190000A0397E29093040310920503109206033A
:1021A000109203031092020394E090930B0392E0C9
:1021B00090930C0380930D0380E180930E0380E2E3
:1021C00080930F0380E48093100380E880931103D1
:1021D00008955058BB27AA270E9401110C9474122D
:1021E0000E94661238F00E946D1220F039F49F3F71
:1021F00019F426F40C9463120EF4E095E7FB0C94AA
:102200005D12E92F0E94851258F3BA17620773070F
:102210008407950720F079F4A6F50C94A7120EF424
:10222000E0950B2EBA2FA02D0B01B90190010C01E6
:10223000CA01A0011124FF27591B99F0593F50F4FE
:10224000503E68F11A16F040A22F232F342F442756
:10225000585FF3CF469537952795A795F04053954E
:10226000C9F77EF41F16BA0B620B730B840BBAF01E
:102270009150A1F0FF0FBB1F661F771F881FC2F789
:102280000EC0BA0F621F731F841F48F4879577959D
:102290006795B795F7959E3F08F0B0CF9395880F57
:1022A00008F09927EE0F9795879508950E943912A7
:1022B00008F481E008950E946F110C9474120E943A
:1022C0006D1258F00E94661240F029F45F3F29F029
:1022D0000C945D1251110C94A8120C9463120E947C
:1022E000851268F39923B1F3552391F3951B550B90
:1022F000BB27AA2762177307840738F09F5F5F4FD9
:10230000220F331F441FAA1FA9F335D00E2E3AF017
:10231000E0E832D091505040E695001CCAF72BD02F
:10232000FE2F29D0660F771F881FBB1F2617370780
:102330004807AB07B0E809F0BB0B802DBF01FF27B2
:1023400093585F4F3AF09E3F510578F00C945D1220
:102350000C94A8125F3FE4F3983ED4F386957795EA
:102360006795B795F7959F5FC9F7880F911D96956B
:10237000879597F90895E1E0660F771F881FBB1FC7
:10238000621773078407BA0720F0621B730B840B74
:10239000BA0BEE1F88F7E09508950E948D1288F021
:1023A0009F5798F0B92F9927B751B0F0E1F0660F19
:1023B000771F881F991F1AF0BA95C9F714C0B1305A
:1023C00091F00E94A712B1E008950C94A712672F14
:1023D000782F8827B85F39F0B93FCCF38695779589
:1023E0006795B395D9F73EF4909580957095619572
:1023F0007F4F8F4F9F4F0895E89409C097FB3EF49D
:1024000090958095709561957F4F8F4F9F4F992341
:10241000A9F0F92F96E9BB279395F69587957795BF
:102420006795B795F111F8CFFAF4BB0F11F460FF7F
:102430001BC06F5F7F4F8F4F9F4F16C0882311F0D7
:1024400096E911C0772321F09EE8872F762F05C0EB
:10245000662371F096E8862F70E060E02AF09A9586
:10246000660F771F881FDAF7880F9695879597F97B
:102470000895990F0008550FAA0BE0E8FEEF161615
:102480001706E807F907C0F012161306E407F50768
:1024900098F0621B730B840B950B39F40A2661F0DC
:1024A000232B242B252B21F408950A2609F4A1407F
:1024B000A6958FEF811D811D089597F99F6780E88C
:1024C00070E060E008959FEF80EC089500240A9486
:1024D0001616170618060906089500240A941216FF
:1024E0001306140605060895092E0394000C11F432
:1024F000882352F0BB0F40F4BF2B11F460FF04C0DF
:102500006F5F7F4F8F4F9F4F089557FD9058440F37
:10251000551F59F05F3F71F04795880F97FB991F42
:1025200061F09F3F79F087950895121613061406FF
:10253000551FF2CF4695F1DF08C01616170618068C
:10254000991FF1CF86957105610508940895E89467
:10255000BB2766277727CB0197F908950E94391288
:1025600008F48FEF08950E94C6120C9474120E9412
:10257000661238F00E946D1220F0952311F00C9431
:102580005D120C94631211240C94A8120E948512FF
:1025900070F3959FC1F3950F50E0551F629FF001B6
:1025A000729FBB27F00DB11D639FAA27F00DB11DCF
:1025B000AA1F649F6627B00DA11D661F829F222758
:1025C000B00DA11D621F739FB00DA11D621F839FDF
:1025D000A00D611D221F749F3327A00D611D231FB5
:1025E000849F600D211D822F762F6A2F11249F5703
:1025F00050409AF0F1F088234AF0EE0FFF1FBB1F06
:10260000661F771F881F91505040A9F79E3F5105C4
:1026100080F00C945D120C94A8125F3FE4F3983E96
:10262000D4F3869577956795B795F795E7959F5F6E
:10263000C1F7FE2B880F911D9695879597F9089500
:102640000E943912880B990B089597FB072E16F4F8
:10265000009407D077FD09D00E947A1307FC05D0BB
:102660003EF4909581959F4F0895709561957F4FA9
:102670000895A1E21A2EAA1BBB1BFD010DC0AA1FC3
:10268000BB1FEE1FFF1FA217B307E407F50720F0DB
:10269000A21BB30BE40BF50B661F771F881F991F56
:1026A0001A9469F760957095809590959B01AC019F
:1026B000BD01CF010895052E97FB1EF400940E94E2
:1026C000721357FD07D00E94391307FC03D04EF454
:1026D0000C94721350954095309521953F4F4F4F74
:1026E0005F4F089590958095709561957F4F8F4FBE
:1026F0009F4F0895AA1BBB1B51E107C0AA1FBB1F18
:10270000A617B70710F0A61BB70B881F991F5A957D
:10271000A9F780959095BC01CD010895EE0FFF1F9C
:102720000590F491E02D099481E090E0F8940C94E8
:062730009913F894FFCF9D
:102736000100000000009F010C013701E60168015D
:1027460046015A01000000000903D9023903B30209
:10275600D102C202B4020000000074020C01390367
:102766003803F6066002B20391036E616E00696E6D
:1027760066006F76660055727369434E4320736533
:102786007269616C2070726F6D74207374617274FB
:102796006564000D0A0055727369434E4300543157
:1027A6003A0054656D70657261747572652069735F
:1027B6003A20002C2054696D653A007373724F46B7
:0A27C60046007373724F4E200000AE
:107E0000112484B714BE81FFF0D085E080938100F7
:107E100082E08093C00088E18093C10086E0809377
:107E2000C20080E18093C4008EE0C9D0259A86E02C
:107E300020E33CEF91E0309385002093840096BBD3
:107E4000B09BFECF1D9AA8958150A9F7CC24DD24C4
:107E500088248394B5E0AB2EA1E19A2EF3E0BF2EE7
:107E6000A2D0813461F49FD0082FAFD0023811F036
:107E7000013811F484E001C083E08DD089C08234E0
:107E800011F484E103C0853419F485E0A6D080C0E4
:107E9000853579F488D0E82EFF2485D0082F10E0AE
:107EA000102F00270E291F29000F111F8ED06801E7
:107EB0006FC0863521F484E090D080E0DECF843638
:107EC00009F040C070D06FD0082F6DD080E0C81688
:107ED00080E7D80618F4F601B7BEE895C0E0D1E017
:107EE00062D089930C17E1F7F0E0CF16F0E7DF06D8
:107EF00018F0F601B7BEE89568D007B600FCFDCFD4
:107F0000A601A0E0B1E02C9130E011968C91119780
:107F100090E0982F8827822B932B1296FA010C0160
:107F200087BEE89511244E5F5F4FF1E0A038BF0790
:107F300051F7F601A7BEE89507B600FCFDCF97BE46
:107F4000E89526C08437B1F42ED02DD0F82E2BD052
:107F50003CD0F601EF2C8F010F5F1F4F84911BD097
:107F6000EA94F801C1F70894C11CD11CFA94CF0C13
:107F7000D11C0EC0853739F428D08EE10CD085E9AC
:107F80000AD08FE07ACF813511F488E018D01DD067
:107F900080E101D065CF982F8091C00085FFFCCF94
:107FA0009093C60008958091C00087FFFCCF809118
:107FB000C00084FD01C0A8958091C6000895E0E648
:107FC000F0E098E1908380830895EDDF803219F02E
:107FD00088E0F5DFFFCF84E1DECF1F93182FE3DFCA
:107FE0001150E9F7F2DF1F91089580E0E8DFEE27F6
:047FF000FF270994CA
:027FFE00040479
:0400000300007E007B
:00000001FF
