:100000000C94E2000C940A010C940A010C940A016D
:100010000C940A010C940A010C940A010C940A0134
:100020000C940A010C9415070C940A010C944F07C8
:100030000C940A010C940A010C940A010C940A0114
:100040000C94A1030C940A010C94E3080C94BD08D1
:100050000C940A010C940A010C940A010C940A01F4
:100060000C94E7050C940A01005EBCE2613FDD835D
:10007000C29C7E20A3FD1F419DC3217FFCA2401E88
:100080005F01E3BD3E6082DC237D9FC1421CFEA078
:10009000E1BF5D0380DE3C62BEE0025CDF81633D68
:1000A0007C22C09E1D43A1FF4618FAA427799BC558
:1000B00084DA3866E5BB5907DB856739BAE4065848
:1000C0001947A5FB7826C49A653BD987045AB8E638
:1000D000A7F91B45C6987A24F8A6441A99C7257B28
:1000E0003A6486D85B05E7B98CD2306EEDB3510F18
:1000F0004E10F2AC2F7193CD114FADF3702ECC9208
:10010000D38D6F31B2EC0E50AFF1134DCE90722CF7
:100110006D33D18F0C52B0EE326C8ED0530DEFB1E7
:10012000F0AE4C1291CF2D73CA947628ABF51749D7
:100130000856B4EA6937D58B5709EBB536688AD4C7
:1001400095CB2977F4AA4816E9B7550B88D6346AB7
:100150002B7597C94A14F6A8742AC896154BA9F7A7
:10016000B6E80A54D7896B35000000002400270048
:100170002A0000000000250028002B0000000008D5
:10018000000201000003040700000000000000005E
:1001900000000000230026002900040404040404D5
:1001A0000404020202020202030303030303010226
:1001B00004081020408001020408102001020408F5
:1001C00010206B0F11241FBECFEFD8E0DEBFCDBFD4
:1001D00011E0A0E0B1E0E0ECF5E202C005900D9284
:1001E000A839B107D9F723E0A8E9B1E001C01D9211
:1001F000A23FB207E1F710E0C2EED0E004C02197C1
:10020000FE010E94D312C13ED107C9F70E94050C1E
:100210000C94DE120C940000833081F028F48130BD
:1002200099F08230A1F008958730A9F08830B9F0B4
:100230008430D1F4809180008F7D03C08091800054
:100240008F7780938000089584B58F7702C084B53E
:100250008F7D84BD08958091B0008F7703C0809119
:10026000B0008F7D8093B00008953FB7F8948091DF
:10027000E9019091EA01A091EB01B091EC0126B562
:10028000A89B05C02F3F19F00196A11DB11D3FBFCE
:10029000BA2FA92F982F8827820F911DA11DB11D5C
:1002A000BC01CD0142E0660F771F881F991F4A9558
:1002B000D1F7089521E001C0220F6A95EAF7DC0129
:1002C0001C962C931C971A965C934E931997ED915C
:1002D000FC910484F585E02D60E00994DC01ED914A
:1002E000FC910684F785E02D41E0099581E090E0DE
:1002F00008950895089585ED8093BC008091BC0019
:1003000084FDFCCF1092E90208954091BD01262F93
:1003100030E0240F311D21323105DCF42091E90257
:100320002430C9F4FC0180E090E0861758F4309145
:10033000BD012191DC01A556BE4FA30FB11D2C9329
:100340000196F3CF8091BD01680F6093BD0180E0FD
:10035000089581E0089582E00895089581E090E095
:100360003091E3012091E201321710F480E090E037
:1003700091958195910908958091E3019091E20111
:10038000891730F48F5F8093E30180E090E0089557
:100390008FEF9FEF08958091E20190E02091E301BB
:1003A000821B91090895CF92DF92EF92FF920F93F3
:1003B0001F93CF93DF937C01262F972F8A01809183
:1003C000EA02882391F0C62FD72F6E01C40ED51EE6
:1003D000CC15DD0571F06991D701ED91FC9101908B
:1003E000F081E02DC7010995F3CF642F822F0E9481
:1003F0008501C801DF91CF911F910F91FF90EF9080
:10040000DF90CF900895CF93DF931F92CDB7DEB7E3
:1004100069832091EA022223D1F020910D0320323A
:1004200040F021E030E0FC013383228380E090E063
:1004300015C08091EB02E82FF0E0E451FD4F998167
:1004400090838F5F8093EB0280930D0305C061E082
:10045000CE0101960E94850181E090E00F90DF912E
:10046000CF910895089580E090E00895FC012381E4
:100470002223B9F09181909569236083828191E074
:100480009093EA0280930C031092EB0210920D03FA
:100490008BEA93E00E9403020E94A80B282F30E011
:1004A00002C020E030E081E090E0232B11F080E0FA
:1004B00090E00895EF92FF920F931F93CF938C01DA
:1004C000FC01759684E0C0E060FF02C09081C92BFA
:1004D0006695815031968111F7CF413011F4F801C2
:1004E0004489F8018585C82BC42B7801FEE0EF0E06
:1004F000F11CF80162896C2BC7010E943602F801D9
:10050000628960956C23C701CF911F910F91FF9075
:10051000EF900C9436020F931F93CF93DF93062F27
:100520000F70423019F440E0602F10C0142F262FB6
:10053000EC0130E0B90184E0759567958A95E1F7A3
:10054000CE010E945A02412F602FCE01DF91CF9140
:100550001F910F910C945A02FC0184858823A9F005
:10056000218532852115310519F4611106C007C0B6
:100570002130310521F4611102C0858701C0158643
:100580006585CF010E960C9436020895CF93DF93C4
:10059000282F30E0F901E458FE4F8491F901E2552B
:1005A000FE4FD491F901E656FE4FC491CC2391F051
:1005B00081110E940C01EC2FF0E0EE0FFF1FE057BD
:1005C000FE4FA591B491EC91ED2381E090E021F4F0
:1005D00080E002C080E090E0DF91CF9108951F930A
:1005E000CF93DF93282F30E0F901E458FE4F849138
:1005F000F901E255FE4FD491F901E656FE4FC49140
:10060000CC23C9F0162F81110E940C01EC2FF0E0D1
:10061000EE0FFF1FEE58FE4FA591B4918FB7F894DF
:10062000111105C09C91ED2FE095E92302C0EC91DA
:10063000ED2BEC938FBFDF91CF911F910895CF9356
:10064000DF9390E0FC01E255FE4F2491FC01E65659
:10065000FE4F8491882361F190E0880F991FFC017F
:10066000E859FE4FC591D491FC01EE58FE4FA5917B
:10067000B491611109C09FB7F894888120958223B5
:100680008883EC912E230BC0623061F49FB7F894FD
:100690003881822F809583238883EC912E2B2C9395
:1006A0009FBF06C08FB7F894E8812E2B28838FBF99
:1006B000DF91CF9108958F929F92AF92BF92CF9288
:1006C000DF92EF92FF926B017C010E9435014B019A
:1006D0005C01C114D104E104F104F1F00E94350180
:1006E000DC01CB0188199909AA09BB09883E93400E
:1006F000A105B10570F321E0C21AD108E108F108A3
:1007000088EE880E83E0981EA11CB11CC114D10490
:10071000E104F10419F7DDCFFF90EF90DF90CF9067
:10072000BF90AF909F908F9008952FB7F8946091ED
:10073000E5017091E6018091E7019091E8012FBFFA
:1007400008951F920F920FB60F9211242F933F938B
:100750008F939F93AF93BF938091E5019091E601B2
:10076000A091E701B091E8013091E40123E0230F6B
:100770002D3720F40196A11DB11D05C026E8230FD9
:100780000296A11DB11D2093E4018093E501909391
:10079000E601A093E701B093E8018091E90190910F
:1007A000EA01A091EB01B091EC010196A11DB11DF0
:1007B0008093E9019093EA01A093EB01B093EC01DF
:1007C000BF91AF919F918F913F912F910F900FBE4D
:1007D0000F901F901895DC01E0E0615038F08D918A
:1007E000E827F0E0E859FF4FE491F7CF8E2F089506
:1007F000FC0190810180F281E02DF8948181892BA8
:1008000081832281892F809528232283A7E0B0E06D
:100810001197F1F7218182238183A3E2B0E0119740
:10082000F1F780817894EFECF0E03197F1F79823BD
:1008300081E009F480E00895FC0190810180F2815B
:10084000E02D892F809560FF12C0F89422818223C9
:1008500082838181892B8183A3E2B0E01197F1F734
:100860008281982B9283789487ED90E011C0F89460
:100870002281822382838181892B8183AFEFB0E043
:100880001197F1F78281982B928378948FE090E012
:100890000197F1F70895CF92DF92EF92FF920F93B5
:1008A0001F93CF93DF931F92CDB7DEB76C01E62E77
:1008B00008E010E0FF24F39461E08F2D8E2109F40D
:1008C00060E0C60149830E941C04FF0C015011091D
:1008D00049810115110581F7411115C0F894D60120
:1008E0001196ED91FC91129791818C9180958923BD
:1008F00081831196ED91FC91129792818C91809554
:100900008923828378940F90DF91CF911F910F916B
:10091000FF90EF90DF90CF900895CF92DF92EF920B
:10092000FF920F931F93CF93DF931F92CDB7DEB744
:100930008C01F62E40E065E579830E944B04CF2CB4
:100940007981D72E760188E0E80EF11CF6016191DD
:100950006F0140E0C8010E944B04CE14DF04B1F7E0
:100960000F90DF91CF911F910F91FF90EF90DF904B
:10097000CF900895FC0190810180F281E02DF894E0
:100980008181292F20958223818378948DE743E00C
:1009900050E0815021F1DA011197F1F730813923CC
:1009A000C1F3F8948281822382838181892B8183A0
:1009B0007894ABE7B7E01197F1F7F8948181282399
:1009C0002183A3E1B1E01197F1F78081982381E0C1
:1009D00009F080E07894E3E6F6E03197F1F70895C6
:1009E000DC01ED91FC910684F785E02D40E009944F
:1009F0000F931F93CF93DF93EC01423018F08C815B
:100A000088608C834F836887222329F0413019F452
:100A10008C8184608C8364E670E080E090E00E94CA
:100A20005B036C8164FD31C0E881F9810684F78540
:100A3000E02D42E063E0CE0109958BE496E4019756
:100A4000F1F7E881F9810684F785E02D42E063E063
:100A5000CE01099503E512E0C8010197F1F7E8819D
:100A6000F9810684F785E02D42E063E0CE01099527
:100A7000C8010197F1F7E881F9810684F785E02D37
:100A800042E062E0CE01099517C06062CE010E948B
:100A9000F0048BE496E40197F1F76C816062CE017B
:100AA0000E94F00403E512E0C8010197F1F76C81A0
:100AB0006062CE010E94F004C8010197F1F76C81D9
:100AC0006062CE010E94F0048BEE90E00197F1F796
:100AD00084E08D836CE0CE010E94F00461E0CE01E1
:100AE0000E94F0048BE39FE10197F1F782E08E838F
:100AF00066E0CE010E94F004E881F9810484F58566
:100B0000E02D6FEFCE01DF91CF911F910F910994EE
:100B1000EF92FF920F931F93CF93DF93EC01062F79
:100B2000F42EE22E8B85888B1092E3011092E20165
:100B30001092EB0210920D031092E90211E0109353
:100B4000E8021092C30261E082E10E94EF0261E0DC
:100B500083E10E94EF028091B9008E7F8093B900FB
:100B60008091B9008D7F8093B90088E48093B800AC
:100B700085E48093BC0088891093EA0280930C037B
:100B80001092EB0210920D030E94A80B91E08111CC
:100B900090E0998B992329F08BEA93E00E94BC01A5
:100BA0008E878989882339F01F861C8260E0CE01F8
:100BB0000E960E9436022E2D4F2D602FCE01DF9112
:100BC000CF911F910F91FF90EF900C94F8041F921A
:100BD0000F920FB60F9211242F933F934F935F9371
:100BE0006F937F938F939F93AF93BF93EF93FF93F5
:100BF0008091B900887F803609F49CC068F58832FE
:100C000009F45BC090F4803109F454C038F48823AF
:100C100009F4F6C0883009F44DC0F6C0883109F4F3
:100C20004CC0803209F45DC0EFC0803409F468C064
:100C300048F4803309F455C0883309F0E5C0809347
:100C4000E702D8C0803509F44FC0883509F45DC08B
:100C5000883409F0D9C0D6C0883909F4C7C0A8F4CF
:100C6000883709F467C038F4883609F463C08037E0
:100C700009F460C0C9C0883809F4B8C0803909F4E3
:100C80005FC0803809F0C0C05BC0803B09F486C0FB
:100C900038F4803A09F466C0883A09F47FC0B4C0D9
:100CA000803C09F4A7C0883C09F4A4C0883B09F43F
:100CB0008AC0AAC08091C40210C09091E6028091BF
:100CC000E502981770F5E091E60281E08E0F8093BF
:100CD000E602F0E0EB53FD4F80818093BB0085EC92
:100CE00086C08093E7028EC0E091E60281E08E0F1D
:100CF0008093E6028091BB00F0E0EB53FD4F8083D0
:100D00009091E6028091E5026EC0E091E60281E0FA
:100D10008E0F8093E6028091BB00F0E0EB53FD4F15
:100D200080838091E80281116DC081E08093C302CD
:100D300084EA61C083E08093E9021092E101CFCFA1
:100D40008091E101803208F051C0E091E10181E041
:100D50008E0F8093E1018091BB00F0E0EF53FE4FD6
:100D60008083BDCF85EC8093BC001092E902809116
:100D7000E101803230F4E091E101F0E0EF53FE4F09
:100D800010826091E10170E0E091BF01F091C0013B
:100D900081EC91E009951092E10136C084E08093E6
:100DA000E9021092BE011092BD01E091BB01F091E9
:100DB000BC0109958091BD01811105C081E080933E
:100DC000BD0110929B01E091BE0181E08E0F8093E6
:100DD000BE01F0E0E556FE4F80818093BB0090910C
:100DE000BE018091BD01981708F479CF85E8809302
:100DF000BC000AC085EC8093BC001092E90204C0DC
:100E00001092E7020E947B01FF91EF91BF91AF9199
:100E10009F918F917F916F915F914F913F912F9112
:100E20000F900FBE0F901F9018951F920F920FB644
:100E30000F9211242F933F934F935F936F937F9360
:100E40008F939F93AF93BF93CF93EF93FF9381EBD8
:100E50008093B200C0919A010E941509EC2FF0E036
:100E6000EE0FFF1FE251FE4F9183808380919A0124
:100E70008F5F80939A0180939A01FF91EF91CF91B8
:100E8000BF91AF919F918F917F916F915F914F91A2
:100E90003F912F910F900FBE0F901F9018951F92AA
:100EA0000F920FB60F9211241F932F933F934F93DE
:100EB0005F936F937F938F939F93AF93BF93CF93E2
:100EC000DF93EF93FF938CE00E94C60211E0682F3E
:100ED00061278CE00E94EF0280919A018093ED01DE
:100EE00010929A01C0EDD3E08E819F810E94BA04D6
:100EF00040E06CEC8E819F810E944B04488164E449
:100F00008E819F810E944B040E9415099093B70225
:100F10008093B6021093B802FF91EF91DF91CF91C9
:100F2000BF91AF919F918F917F916F915F914F9101
:100F30003F912F911F910F900FBE0F901F9018950A
:100F4000CF92DF92EF92FF920F931F93CF93DF9395
:100F50006C017A018B01C0E0D0E0CE15DF0589F08D
:100F6000D8016D918D01D601ED91FC910190F08138
:100F7000E02DC6010995892B11F47E0102C021964E
:100F8000ECCFC701DF91CF911F910F91FF90EF90B0
:100F9000DF90CF900895FC01538D448D252F30E0D4
:100FA000842F90E0821B930B541710F0CF96089576
:100FB00001970895FC01918D828D981761F0828DC3
:100FC000DF01A80FB11D5D968C91928D9F5F9F737D
:100FD000928F90E008958FEF9FEF0895FC01918D1F
:100FE000828D981731F0828DE80FF11D858D90E08C
:100FF00008958FEF9FEF0895FC01918D228D892F29
:1010000090E0805C9F4F821B91098F739927089510
:101010008EE093E00E94FC0721E0892B09F420E098
:10102000822F0895FC01848DDF01A80FB11DA35A02
:10103000BF4F2C91848D90E001968F739927848FF8
:10104000A689B7892C93A089B1898C9180648C93EF
:10105000938D848D981306C00288F389E02D8081DA
:101060008F7D80830895EF92FF920F931F93CF930C
:10107000DF93EC0181E0888F9B8D8C8D981305C0E8
:10108000E889F989808185FD24C0F62E0B8D10E05A
:101090000F5F1F4F0F731127E02E8C8DE8120CC0CD
:1010A0000FB607FCFACFE889F989808185FFF5CF73
:1010B000CE010E941208F1CF8B8DFE01E80FF11DC9
:1010C000E35AFF4FF0820B8FEA89FB8980818062AF
:1010D00007C0EE89FF896083E889F989808180648F
:1010E000808381E090E0DF91CF911F910F91FF907D
:1010F000EF900895CF93DF93EC01888D8823C9F09A
:10110000EA89FB89808185FD05C0A889B9898C9110
:1011100086FD0FC00FB607FCF5CF808185FFF2CFAB
:10112000A889B9898C9185FFEDCFCE010E94120864
:10113000E7CFDF91CF91089580E090E0892B29F0EF
:101140000E94080881110C94000008950E94D91291
:101150006115710579F0FB0101900020E9F73197E5
:10116000AF01461B570BDC01ED91FC910280F3812E
:10117000E02D099480E090E008951F920F920FB641
:101180000F9211242F933F934F935F936F937F930D
:101190008F939F93AF93BF93EF93FF938EE093E072
:1011A0000E941208FF91EF91BF91AF919F918F9193
:1011B0007F916F915F914F913F912F910F900FBE53
:1011C0000F901F9018951F920F920FB60F92112437
:1011D0002F938F939F93EF93FF93E0911E03F091D2
:1011E0001F038081E0912403F091250382FD12C04A
:1011F0009081809127038F5F8F732091280382173E
:1012000051F0E0912703F0E0E25FFC4F958F80936F
:10121000270301C08081FF91EF919F918F912F91C2
:101220000F900FBE0F901F90189580E480937C0064
:1012300080917A00806480937A0080917A0086FDA4
:10124000FCCF809178002091790090E0922B089556
:10125000CF93DF93CDB7DEB728970FB6F894DEBFF4
:101260000FBECDBF1D8280E48E8394E19F8394E501
:10127000988719828A8380E18B8380E58C83209113
:10128000BE0381E0211180E081953091BF0390E0A1
:10129000FE01E80FF91F303121F4243011F461818F
:1012A00001C06581665F606887EB93E028960FB6A2
:1012B000F894DEBF0FBECDBFDF91CF910C94F00448
:1012C0008F929F92AF92BF920F931F93CF93DF9312
:1012D000CDB7DEB7A1970FB6F894DEBF0FBECDBF76
:1012E00019A2423008F44AE08E010F5D1F4F842E90
:1012F000912CA12CB12CA50194010E947E12E62F05
:10130000B901CA0101501109EA3014F4E05D01C0CD
:10131000E95CD801EC93232B242B252B61F7B80132
:101320008EE093E00E94A808A1960FB6F894DEBF65
:101330000FBECDBFDF91CF911F910F91BF90AF90A6
:101340009F908F900895E0910E03F0910F0301900C
:10135000F081E02D682F8EE093E009944F925F9228
:101360006F927F928F929F92AF92BF92CF92DF92B5
:10137000EF92FF926B017C01B42E9B01AC010E94A5
:101380006512882319F06BE871E027C02601370148
:10139000E89477F82FEF3FEF4FE75FE7C301B20123
:1013A0000E94651281110DC02FEF3FEF4FE75FE7FD
:1013B000C301B2010E949B1018161CF46FE871E083
:1013C0000CC02FEF3FEF4FE75FE4C701B6010E946B
:1013D000F311181694F463E971E08EE093E0FF9046
:1013E000EF90DF90CF90BF90AF909F908F907F90C5
:1013F0006F905F904F900C94A8082FEF3FEF4FE74E
:101400005FECC701B6010E949B1087FDE4CF20E08E
:1014100030E0A901C701B6010E949B1087FF09C0F7
:101420008DE20E94A3094C01F7FAF094F7F8F094CA
:1014300002C0812C912CA12C60E070E080E09FE341
:10144000AB1441F020E030E040E251E40E94A010F3
:10145000A394F6CF9B01AC01C701B6010E942F10E7
:101460002B013C010E9412116B017C010E94411171
:101470009B01AC01C301B2010E942E102B013C0163
:101480004AE0C701B6010E9460097C01E80CF91C22
:10149000BB2029F08EE20E94A309E80EF91EDB2C86
:1014A000DD2021F120E030E040E251E4C301B2014F
:1014B0000E94F8112B013C010E9412114B01A12C3A
:1014C000B12C4AE0C501B4010E946009E80EF91E82
:1014D000C501B4010E9441119B01AC01C301B201DD
:1014E0000E942E102B013C01DA94DACFC701FF9045
:1014F000EF90DF90CF90BF90AF909F908F907F90B4
:101500006F905F904F900895AF92BF92CF92DF920D
:10151000EF92FF920F931F93CF93DF938B01BC0148
:101520008091D6039091D7030E948D0440E06EEB2A
:101530008091D6039091D7030E944B04E801680183
:1015400089E0C80ED11CA090D603B090D70388E0E4
:10155000E82EF12C01E010E0C5010E94F803811192
:10156000102B000F81E0E81AF108B1F71993CC15A0
:10157000DD0549F78091D6039091D7030E94BA0404
:1015800091E0813009F090E0892FDF91CF911F9198
:101590000F91FF90EF90DF90CF90BF90AF900895A4
:1015A000AF92BF92CF92DF92EF92FF920F931F9371
:1015B000CF93DF931F92CDB7DEB75C01D62EE72E17
:1015C000FC018585811105C0C5010E94BA04811105
:1015D00006C0F50113861586148680E065C040E0DC
:1015E00060EFC5010E944B0401E0F12CC12C11E019
:1015F000C5010E94F803682FC50169830E94F803A2
:101600006981613019F48130B9F433C04F2D50E055
:1016100068131BC0F5018385181730F4E40FF51F1C
:101620008381802349F402C0181731F060E019303B
:1016300058F4F501148708C0F501EF0DF11D838101
:10164000802B838361E009C0C12EF501E40FF51FF3
:101650009381802F809589238383C5010E941C0478
:101660001F5F000F11F4F39401E0F7E0FF1508F09D
:10167000BFCF113408F4ADCFF501C386C11002C04D
:1016800081E08587F5018381882309F4A2CFD50104
:101690001396ED2DFE2D9501255F3F4F8D91819382
:1016A000A217B307D9F781E00F90DF91CF911F9177
:1016B0000F91FF90EF90DF90CF90BF90AF90089583
:1016C0000F931F93CF93DF93CDB7DEB729970FB654
:1016D000F894DEBF0FBECDBFFC012081203161F147
:1016E0008C018091D6039091D7030E94BA0488237D
:1016F00009F1BE016F5F7F4FC8010E94840A8823F1
:10170000C9F068E0CE0101960E94EB039985891328
:1017100011C08D818F3361F020F48F3159F489E04D
:101720000CC08F3519F08F3739F004C08BE005C03D
:101730008AE003C080E001C08CE029960FB6F894DF
:10174000DEBF0FBECDBFDF91CF911F910F910895E6
:1017500020910D0390910C03213208F04AC0809132
:10176000E9028111FCCF32E03093E90231E030939D
:10177000E8023FEF3093E7021092E6022093E50281
:10178000ACEEB2E045EC52E0FA013E2F341B3217CA
:1017900018F43D913193F9CF1092C4022091C40204
:1017A000990F922B9093C4029091C302913061F4EF
:1017B0001092C3029091C4029093BB009091BC0020
:1017C00093FDF8CF95EC01C095EE9093BC009091FD
:1017D000E9029230E1F39091E7029F3F79F0809126
:1017E000E702803241F08091E702803331F084E0FB
:1017F00005C081E003C082E001C083E01092EB02EB
:1018000010920D031092EA020895CF93DF93CDB7A3
:10181000DEB761970FB6F894DEBF0FBECDBF7894E8
:1018200084B5826084BD84B5816084BD85B58260E5
:1018300085BD85B5816085BD80916E008160809396
:101840006E001092810080918100826080938100FF
:10185000809181008160809381008091800081600F
:10186000809380008091B10084608093B10080916A
:10187000B00081608093B00080917A008460809392
:101880007A0080917A00826080937A0080917A0059
:10189000816080937A0080917A00806880937A00DA
:1018A0001092C10020E042E060E187EB93E00E94EB
:1018B000880540E050E063E087EB93E00E945A0126
:1018C00061E087EB93E00E94AC0261E08DE00E9452
:1018D0001F0361E08CE00E941F0361E08BE00E9427
:1018E0001F0361E08AE00E941F0362E088E00E941B
:1018F0001F0361E088E00E94EF026AE070E080E090
:1019000090E00E945B0360E08DE00E94EF0261E0E6
:101910008CE00E94EF0260E08BE00E94EF0260E04A
:101920008AE00E94EF02E0911E03F0911F0382E023
:101930008083E0911A03F0911B031082E0911C0355
:10194000F0911D0380E1808310922603E091220331
:10195000F09123038EE28083E0912003F091210334
:10196000808180618083E0912003F0912103808158
:1019700088608083E0912003F0912103808180685A
:101980008083E0912003F091210380818F7D80830B
:101990006AE371E08EE093E00E94A80867E571E0D9
:1019A0008EE093E00E94A808E091D603F091D7035F
:1019B000138615861486DF011B9633961E92AE178A
:1019C000BF07E1F71092D4031092D50311E0BE01D6
:1019D0006F5F7F4F8091D6039091D7030E94D00A0A
:1019E000882309F45EC067E0CE0101960E94EB03F4
:1019F00098858913ECCF8091D003811127C0809105
:101A0000D6039091D7030E94BA04BE016F5F7F4F47
:101A10008091D6039091D7030E948D0440E064EB3F
:101A20008091D6039091D7030E944B048091D603F6
:101A30009091D7030E94F803082F8091D6039091CC
:101A4000D7030E94BA04002309F4DFC10091D10337
:101A5000CE0101960E94600B801718F48091D1038B
:101A600004C0CE0101960E94600B8093D103809147
:101A7000D4038F5F8093D4038981883261F030F47E
:101A8000803149F0823209F0A2CF05C08B3319F0C2
:101A9000823409F09CCF8091D5038F5F8093D5036A
:101AA00096CFF894109280001092810010928500D9
:101AB0001092840082E19AE79093890080938800D5
:101AC0008091810088608093810080918100846092
:101AD0008093810080916F00826080936F001092EC
:101AE000B10081EB8093B2001092B0008091B10000
:101AF00087608093B1008091700081608093700056
:101B000078948091D40390E09093BA028093B902C4
:101B100062E087EB93E00E94F0048BE39FE1019782
:101B2000F1F76AE571E087EB93E00E94A8080EE404
:101B300011E022242394312C88E00E94C602909365
:101B4000C2028093C1028091B802882309F4F9C0CF
:101B50000E9495036B017C0100937C0062E070E0C1
:101B600080E090E00E945B0380917A008064809323
:101B70007A0080917A0086FDFCCF809178002091D8
:101B8000790030E0322F2227A901330F660B770B43
:101B90009A01AB01282B64EB7BE281E190E00E948B
:101BA000A012CA01B9010E9443114B015C0180914E
:101BB000B6029091B7028E5F914060E070E50E949E
:101BC0006A12072E000C880B990B0E9443112B01FF
:101BD0003C016AE571E08EE093E00E94A80867E5A9
:101BE00071E08EE093E00E94A80862E671E08EE06A
:101BF00093E00E94A808E091D603F091D7031386E2
:101C000015861486DF011B96CF0103961E92A81736
:101C1000B907E1F7BE01665F7F4FCF010E94D00A8E
:101C2000882349F067E0CE010A960E94EB03998968
:101C3000891709F4F6C060E070E08EEF92EC42E0A4
:101C40000E94AE0963E771E08EE093E00E94A8086D
:101C50000E9495034AE00E94600967E571E08EE00A
:101C600093E00E94A8084AE0C501B4010E94AE09B1
:101C700067E571E08EE093E00E94A8084AE0C301A6
:101C8000B2010E94AE0967E571E08EE093E00E9428
:101C9000A8088EEEA82E81E0B82EF5016191719111
:101CA0005F0180E090E04AE00E9460096BE771E02C
:101CB0008EE093E00E94A808F2E0AF16F2E0BF06C3
:101CC00061F71092B8024AE06FEF70E080E090E0B8
:101CD0000E94600967E571E08EE093E00E94A80829
:101CE0006091ED0170E080E090E04AE00E946009C0
:101CF00067E571E08EE093E00E94A8080E949503DA
:101D00009B01AC012C193D094E095F0969017A015B
:101D100057FF0CC08DE20E94A30966277727CB01ED
:101D20006C197D098E099F094AE003C04AE0C7018A
:101D3000B6010E94600967E571E08EE093E00E94C1
:101D4000A8088091C1029091C202892B09F041C07C
:101D5000E0900001F090010131E0E316F104C9F5D3
:101D60000E9495038090BD029090BE02A090BF0299
:101D7000B090C002DC01CB0188199909AA09BB09FE
:101D800081399140A105B10520F18DE00E94C60284
:101D9000682F61278DE00E94EF028091BB02909135
:101DA000BC020197A9F51092BC021092BB020E94DE
:101DB00028096DE771E087EB93E00E94A8080E9474
:101DC00095036093BD027093BE028093BF0290930F
:101DD000C002E090BB02F090BC026E2D8BE00E942E
:101DE000EF02DD24D394EF2809F0D12C6D2D8DE086
:101DF0000E94EF026D2D8AE00E94EF0230920101F5
:101E0000209200010E949C0897CE1093D0031ECE12
:101E1000F092BC02E092BB020E94280964E871E0E3
:101E2000CACF8091D6039091D7030E94BA04882329
:101E3000F1F1BE016F5F7F4FCE010A960E94840AC6
:101E40008823A9F168E0CE0101960E94EB039985F1
:101E500089132DC0298138E0239FB00111242A81E4
:101E600030E0322F2227330F330F330F262B372B3F
:101E70008A858031D1F4688570E08F81AB01481B81
:101E80005109CA019695982F8827979587950E94A2
:101E90006A12CB014097B901607F53E0660F771F4C
:101EA0005A95E1F7680F791F04C0B90102C060E8D4
:101EB00074EE613854EE75070CF4BDCE072E000C9D
:101EC000880B990B0E94431120E030E040E05CE376
:101ED0000E94F811B4CE109211031092100388EEF4
:101EE00093E0A0E0B0E08093120390931303A093DB
:101EF0001403B093150326E031E030930F032093D1
:101F00000E0325EC30E030931B0320931A0324ECDE
:101F100030E030931D0320931C0320EC30E030931D
:101F20001F0320931E0321EC30E030932103209304
:101F3000200322EC30E0309323032093220326EC8D
:101F400030E030932503209324031092270310924E
:101F500028031092290310922A031092AE031092C4
:101F6000AD038093AF039093B003A093B103B093FC
:101F7000B20388E191E09093AC038093AB0360E0FF
:101F800082E00E941F03E0EBF1E0E491E093E403C0
:101F9000ECE9F1E0E491F0E0EE0FFF1FE057FE4FB7
:101FA000859194919093E6038093E5031092EF035B
:101FB0001092F1031092F003EFEEF3E0129283E03F
:101FC000E73EF807D9F784EE93E09093D703809328
:101FD000D6031092D4031092D5031092D00389E057
:101FE0008093D10381E08093D2038093D303109236
:101FF000E3031092E2031092BA031092B9032AE2AB
:1020000031E03093B8032093B7031092C7039FEFDA
:102010009093C6031092C5031092C80397E2909361
:10202000C2031092C3031092C4031092C103109212
:10203000C00394E09093C90392E09093CA03809305
:10204000CB0380E18093CC0380E28093CD0380E4D6
:102050008093CE0380E88093CF0308955058BB2728
:10206000AA270E9446100C94B9110E94AB1138F0B7
:102070000E94B21120F039F49F3F19F426F40C9419
:10208000A8110EF4E095E7FB0C94A211E92F0E9431
:10209000CA1158F3BA17620773078407950720F02F
:1020A00079F4A6F50C94EC110EF4E0950B2EBA2FF2
:1020B000A02D0B01B90190010C01CA01A00111244E
:1020C000FF27591B99F0593F50F4503E68F11A16FA
:1020D000F040A22F232F342F4427585FF3CF46958B
:1020E00037952795A795F0405395C9F77EF41F16AD
:1020F000BA0B620B730B840BBAF09150A1F0FF0F77
:10210000BB1F661F771F881FC2F70EC0BA0F621F62
:10211000731F841F48F4879577956795B795F79552
:102120009E3F08F0B0CF9395880F08F09927EE0FE7
:102130009795879508950E947E1108F481E008958F
:102140000E94B4100C94B9110E94B21158F00E9470
:10215000AB1140F029F45F3F29F00C94A21151110A
:102160000C94ED110C94A8110E94CA1168F39923E4
:10217000B1F3552391F3951B550BBB27AA27621783
:102180007307840738F09F5F5F4F220F331F441F90
:10219000AA1FA9F335D00E2E3AF0E0E832D09150C4
:1021A0005040E695001CCAF72BD0FE2F29D0660FB1
:1021B000771F881FBB1F261737074807AB07B0E8F4
:1021C00009F0BB0B802DBF01FF2793585F4F3AF0FA
:1021D0009E3F510578F00C94A2110C94ED115F3FD5
:1021E000E4F3983ED4F3869577956795B795F79580
:1021F0009F5FC9F7880F911D9695879597F9089568
:10220000E1E0660F771F881FBB1F62177307840703
:10221000BA0720F0621B730B840BBA0BEE1F88F712
:10222000E09508950E94D21188F09F5798F0B92F39
:102230009927B751B0F0E1F0660F771F881F991FFB
:102240001AF0BA95C9F714C0B13091F00E94EC11A0
:10225000B1E008950C94EC11672F782F8827B85FB0
:1022600039F0B93FCCF3869577956795B395D9F753
:102270003EF490958095709561957F4F8F4F9F4F5D
:102280000895E89409C097FB3EF490958095709569
:1022900061957F4F8F4F9F4F9923A9F0F92F96E9B2
:1022A000BB279395F695879577956795B795F11127
:1022B000F8CFFAF4BB0F11F460FF1BC06F5F7F4FC4
:1022C0008F4F9F4F16C0882311F096E911C07723D6
:1022D00021F09EE8872F762F05C0662371F096E8DF
:1022E000862F70E060E02AF09A95660F771F881FAE
:1022F000DAF7880F9695879597F90895990F000852
:10230000550FAA0BE0E8FEEF16161706E807F907C7
:10231000C0F012161306E407F50798F0621B730B62
:10232000840B950B39F40A2661F0232B242B252BE3
:1023300021F408950A2609F4A140A6958FEF811D86
:10234000811D089597F99F6780E870E060E0089527
:102350009FEF80EC089500240A94161617061806BD
:102360000906089500240A94121613061406050699
:102370000895092E0394000C11F4882352F0BB0F2A
:1023800040F4BF2B11F460FF04C06F5F7F4F8F4F8D
:102390009F4F089557FD9058440F551F59F05F3FC8
:1023A00071F04795880F97FB991F61F09F3F79F077
:1023B00087950895121613061406551FF2CF4695F9
:1023C000F1DF08C0161617061806991FF1CF86957B
:1023D0007105610508940895E894BB27662777275F
:1023E000CB0197F908950E947E1108F48FEF0895AC
:1023F0000E940B120C94B9110E94AB1138F00E948C
:10240000B21120F0952311F00C94A2110C94A81194
:1024100011240C94ED110E94CA1170F3959FC1F321
:10242000950F50E0551F629FF001729FBB27F00D82
:10243000B11D639FAA27F00DB11DAA1F649F6627D7
:10244000B00DA11D661F829F2227B00DA11D621F26
:10245000739FB00DA11D621F839FA00D611D221FE0
:10246000749F3327A00D611D231F849F600D211DC4
:10247000822F762F6A2F11249F5750409AF0F1F047
:1024800088234AF0EE0FFF1FBB1F661F771F881FB0
:1024900091505040A9F79E3F510580F00C94A21135
:1024A0000C94ED115F3FE4F3983ED4F38695779555
:1024B0006795B795F795E7959F5FC1F7FE2B880F56
:1024C000911D9695879597F908950E947E11880B26
:1024D000990B089597FB072E16F4009407D077FD0B
:1024E00009D00E94BF1207FC05D03EF4909581955B
:1024F0009F4F0895709561957F4F0895A1E21A2E20
:10250000AA1BBB1BFD010DC0AA1FBB1FEE1FFF1F97
:10251000A217B307E407F50720F0A21BB30BE40BE7
:10252000F50B661F771F881F991F1A9469F760952E
:102530007095809590959B01AC01BD01CF010895E8
:10254000052E97FB1EF400940E94B71257FD07D08A
:102550000E947E1207FC03D04EF40C94B7125095E3
:102560004095309521953F4F4F4F5F4F089590957F
:102570008095709561957F4F8F4F9F4F0895AA1B4F
:10258000BB1B51E107C0AA1FBB1FA617B70710F05E
:10259000A61BB70B881F991F5A95A9F78095909590
:1025A000BC01CD010895EE0FFF1F0590F491E02DC1
:1025B000099481E090E0F8940C94DE12F894FFCF37
:1025C0000100000000003308A007CB077A08FC07D1
:1025D000DA07EE07000000000302D3013302AD0169
:1025E000CB01BC01AE01000000006E01A007330268
:1025F000320288055A01AC028B0255727369434E50
:10260000432073657269616C2070726F6D74207302
:10261000746172746564000D0A0055727369434EEB
:10262000430054656D7065726174757265206973DD
:102630003A20002C2054696D653A002C00737372A7
:102640004F4646007373724F4E20006E616E0069F4
:082650006E66006F7666000063
:00000001FF
